:020000040800F2
:10000000A8080020A1010008891D0008011B0008A4
:10001000851D0008D9150008A7230008000000006E
:10002000000000000000000000000000991F000810
:10003000DD15000800000000AD1D0008AD2000081F
:10004000BB010008BB010008BB010008BB010008A0
:10005000BB010008BB010008BB010008BB01000890
:10006000BB010008BB010008BB010008BB01000880
:10007000BB010008BB010008BB010008BB01000870
:10008000BB010008BB010008BB010008BB01000860
:10009000BB010008BB010008BB010008BB01000850
:1000A000BB010008BB010008BB010008BB01000840
:1000B000BB01000811210008BB010008BB010008BA
:1000C000BB010008BB010008BB010008BB01000820
:1000D000BB010008D1210008BB010008BB010008DA
:1000E000BB010008BB010008BB01000800F002F8DA
:1000F00000F047F80AA090E8000C82448344AAF17B
:100100000107DA4501D100F03CF8AFF2090EBAE878
:100110000F0013F0010F18BFFB1A43F0010318473B
:100120005035000070350000103A24BF78C878C1FF
:10013000FAD8520724BF30C830C144BF04680C60ED
:10014000704700000023002400250026103A28BF35
:1001500078C1FBD8520728BF30C148BF0B60704739
:10016000662903F03882002070471FB500F09EFA20
:1001700004000020002102F0AFFAE0601FBD10B5BE
:1001800010BD00F0ABFB1146FFF7EFFF02F0A0F946
:1001900000F0C9FB03B4FFF7F2FF03BC02F019F94A
:1001A0000948804709480047FEE7FEE7FEE7FEE70B
:1001B000FEE7FEE7FEE7FEE7FEE7FEE70448054947
:1001C000054A064B70470000B1200008ED0000080A
:1001D000A8020020A8080020A8040020A8040020ED
:1001E000704700000FB4044910B503AA029800F04C
:1001F0004BFA10BC5DF814FB840000202DE9F0419F
:100200000E460446002020622046E168884730B34D
:10021000252805D0D4E901219047206A401CF2E747
:10022000E168204600278847050018D0A5F1410065
:10023000192802D820354FF4006732462946204657
:100240002760FFF78DFF40B1012804D0F61D26F08E
:1002500007060836D8E7361DD6E72846DAE7206ACB
:10026000BDE8F081704770477047704770472DE9CF
:10027000FF4F0C461E464FF0FF378BB0D2E900010E
:10028000DDF860800A908A46C1F30A5505B93D46FB
:10029000002108464FF00000BAF1000F00F44000C2
:1002A00005DA00EB80004FF4400101EA50004FEA0C
:1002B0009059B9F1010F00DDB9460A9850EA4A0099
:1002C0000ED044F61050A5F2FF3545432F14B8F177
:1002D000000F1ED07542291E1EDDC9F100021CE070
:1002E000B8F1010F4FF0000001D0302103E0F243DC
:1002F00005E02154401CB042FBDB304600220021C7
:1003000021540B99C1F80880C1E900200FB0BDE865
:10031000F08FBD1B6D1CDEE74A4600DA694206A875
:1003200000F066FA06AB93E8070003AB83E807002A
:1003300050460A9900F03EFB8DE80700A0F50050FA
:100340001F3800900398002D09DD42F21F014A4634
:10035000084403A90390684600F09DFD08E0A0F55D
:1003600000504A461F3803A90390684600F0A7FDD5
:100370008DE807000004000C03D04FF0FF30410867
:1003800000E01046B8F1000F03D00022009215469D
:100390001EE0751E05D400F08DF9303262556D1ED9
:1003A000F9D5B3460122084302D000227F1C04E0A5
:1003B0002078302801D100227F1E002A099786D09C
:1003C0001DE0112D07DA00F075F9303262556D1C11
:1003D00050EA0102F5D1084302D00098C8B10EE0FE
:1003E0000021681E05E0235C625C63542254401EB9
:1003F000491C8142F7DBAB46A81B401E0990002038
:1004000004F80B000B98099AC0F80880C0E9002B8B
:100410007CE711264FF0000859E72DE9F04F884698
:100420000446D21D22F0070191B0D1E90001CDE9C7
:100430000A0101F0BAFF02460B98C00F01D02D202F
:1004400007E02068810701D52B2002E0202101EA86
:10045000C000032A099001D0072A05DB0346414664
:10046000204600F085F90BE12078800601D5E0698F
:1004700000E00620B8F1650F814606D0B8F1660F9E
:1004800018D0B8F1670F70D131E00020B9F1110F29
:10049000009001DB112301E009F101030AAA01A97F
:1004A0000CA8FFF7E4FEDDE90C70002609F1010558
:1004B000834647E001204B4600904FF000470AAAD0
:1004C00001A90CA8FFF7D3FEDDE90DB00C995D463C
:1004D000002610B909F101000D18B9EB050003D48D
:1004E000C0F1FF3609F10105A5EB09002BE0B9F1D8
:1004F000010F01DA4FF001090020B9F1110F00904E
:10050000484601DD112300E003460AAA01A90CA810
:10051000FFF7ADFEDDE90C704D46002683462078DE
:1005200000070AD4AB4500DA5D4601A8012D04DDC1
:10053000411911F8011C302907D04F4502DA17F193
:10054000040F04DA012082460FE06D1EEEE7002F53
:1005500002DCED1B3E4403E0781CA84200DD7D1C5C
:10056000B81B00F1010A4FF000472078000703D4C0
:10057000AA4501DB4FF0FF3A0021B7F1004F0DF122
:1005800043088DF8431024D002202B23002F01DADA
:100590007F422D230A21021EA0F1010000DC5FB181
:1005A00097FBF1FC97FBF1F201FB1C7C17460CF169
:1005B000300C08F801CDEEE7A8F1010003702188A6
:1005C000090501D5452100E06521A0F1010800F8E9
:1005D000011C09980FA9A1EB0807FF1D00B101201C
:1005E000411901EBEA70A1693844081A401EA06164
:1005F0002078C00602D42046AFF30080099828B1C5
:10060000D4E901219047206A401C20622078C0066E
:1006100022D52046AFF300801EE0002E04DBB34558
:1006200002DD01A8805D00E03020D4E9012190477F
:10063000206A401C2062761CAAF101005FEA000AD1
:100640000AD100F033F8C0680168405CD4E90121A8
:100650009047206A401C2062281EA5F10105DCDCC1
:1006600007E0D4E9012118F8010B9047206A401CEB
:100670002062381EA7F10107F3DC2046AFF30080AB
:10068000032011B043E60000074B70B50D467B44D4
:1006900000F05BF80446284600F018F910B14FF05E
:1006A000FF3070BD204670BD231E0000004870471B
:1006B0006402002030B5B0F10A024FEA900E71F1E9
:1006C00000034EEA817EB0EB0E0061EB91014FEA30
:1006D000101E4EEA017E10EB0E0041EB11114FEAA5
:1006E000102E4EEA016E10EB0E0041EB11214FEA85
:1006F000104E4EEA014E10EB0E0041EB1141401836
:1007000041F100014FEAD00040EA41704FEAD101C7
:1007100010EB80054FEA810444EA907444EB010435
:100720006D1944EB0404521BA3414FF0000348BF72
:100730000A3200D530BD401C41F1000130BD00003F
:1007400001694A1C02610878704700B58FB0CDE995
:1007500001310021059105497944CDE90310114685
:100760006846FFF74BFD0FB000BD0000E5FFFFFF3F
:100770002DE9F0411F46044603260168072A01F4CB
:10078000006004DB08B116A505E016A503E008B17A
:1007900015A500E015A521F010002060A069C01E7D
:1007A000A0610FB1401EA0612046AFF300804FB1A1
:1007B000D4E9012138469047206A401C2062C01CC1
:1007C000206206E0206AFAE7D4E9012115F8010B5E
:1007D0009047761EF8D22046AFF30080BDE8F08146
:1007E0004E414E006E616E00494E4600696E6600D5
:1007F0002DE9F047814616468AB0334878440DC843
:100800008DE80D0030487844801C03AC0DC884E8A6
:100810000D0041F69B300844372190FBF1F290FB2C
:10082000F1F5A5F1800501FB12041B3C02D56442E1
:10083000012000E00020DFF890A080460027FA4465
:10084000AAF1BE0A0DE0E00709D03246684607EB80
:1008500047010AEB810100F032FB8DE807006410CC
:100860007F1C002CEFD1184F7F44AC3F18E0E80705
:1008700014D007EB04100DF1180A90E80E008AE876
:100880000E00C068F04201D198190890324606A9BE
:1008900003A800F014FB03AB83E807006D10641C91
:1008A000002DE4D132466946B8F1000F03A802D00A
:1008B00000F0F1FA01E000F002FBC9E90001C9F81B
:1008C00008200AB0BDE8F087582E0000007B00F039
:1008D0008000704700487047440200207546FFF7CB
:1008E000F9FFAE4605006946534620F007008546ED
:1008F00018B020B5FFF762FCBDE820404FF00006BD
:100900004FF000074FF000084FF0000B21F00701F7
:10091000AC46ACE8C009ACE8C009ACE8C009ACE83A
:10092000C0098D4670470446AFF300802046FFF7AC
:1009300031FC00004FF0013C50F8042B51F8043B0F
:100940009A4221D1A2EB0C03934313EACC1317D1A3
:1009500050F8042B51F8043B9A4215D1A2EB0C033A
:10096000934313EACC130BD150F8042B51F8043BFA
:100970009A4209D1A2EB0C03934313EACC13DBD0C8
:100980004FF00000704700BFD01A01BAB1FA81F1F0
:1009900001F0180122FA01F0CB40C1F12001DBB2D5
:1009A000C0B2C01A2CFA01F3D11A914311EAC31153
:1009B000E6D170475FEA400C08BF91F0000F4FEAA4
:1009C0008C234FEAC12243EA51514FEA1C5018BF11
:1009D00000F5F0404FEA300018BF41F000415FEAF7
:1009E0006C5C00F02980BCF1FF3F08BF40F0804004
:1009F0007047130C06BF12044FF0100C4FF0000CA0
:100A0000130E04BF12020CF1080C130F04BF1201E5
:100A10000CF1040C930F04BF92000CF1020CD30FE5
:100A200004BF52000CF1010C11464FF00002A0F17E
:100A30001F00A0EB0C00704711F0004F08BF70477B
:100A400031F000413FF4D5AF0B0C06BF09044FF065
:100A5000100C4FF0000C0B0E04BF09020CF1080C37
:100A60000B0F04BF09010CF1040C8B0F04BF8900AC
:100A70000CF1020CCB0F04BF49000CF1010CCCF1BE
:100A80002003A0EB0C0022FA03F302FA0CF241EA75
:100A9000030100F10100704720F07F4C80EA030061
:100AA00023F07F47ACEB070303F57C5300F00040D5
:100AB00003F1FF032DE980494FEA154B09B44FEAD2
:100AC000144325EA0B4E24EA03480FF2042606EBF2
:100AD000132749083E785FEA320203FB0667C7F531
:100AE000000707FB06F64FEA54374FEAD64606F1F1
:100AF000020607FB066CCCF1005C4FEA1C472CEAAF
:100B0000074C07FB06F40CFB06F504EB15464FEA11
:100B1000961634BF00204FF000404FEAD13706FB55
:100B200007FC4FEA1C4C0CFB0BF7D21B03FB0CF72A
:100B300061EB07010CFB0EF7B0EB074072EB1742BD
:100B40000CFB08F734BFA2EB0742B2EB074261EBA4
:100B500017414FEA0C444FEA910706FB07FC4FEAA6
:100B60001C4C0CFB0BF7B0EBC74072EB573203FB8E
:100B70000CF734BFA2EBC742B2EBC74261EB57316F
:100B80000CFB0EF7B0EBC70072EB57720CFB08F7CB
:100B900034BFA2EBC702B2EBC70261EB5771039FF0
:100BA0004FEA816141EA921104EBCC044FEAD1375C
:100BB0004FEA826206FB07FC42EA90124FEA80602D
:100BC0004FEA1C4C0CFB0BF7D21B03FB0CF761EB41
:100BD00007010CFB0EF7B0EB074072EB17420CFB62
:100BE00008F734BFA2EB0742B2EB074261EB1741B3
:100BF0004FEA8C554FEA910704EB9C2406FB07FC57
:100C00004FEA1C4C0CFB0BF7B0EBC74072EB5732B2
:100C100003FB0CF734BFA2EBC742B2EBC74261EB58
:100C200057310CFB0EF7B0EBC70072EB57720CFBA1
:100C300008F734BFA2EBC702B2EBC70261EB5771F2
:100C400015EB4C254FEA816141EA92114FEA82622D
:100C50004FEAD13742EA901206FB07FC44F1000448
:100C60004FEA80604FEA1C4C0CFB0BF7D21B03FBD6
:100C70000CF761EB07010CFB0EF7B0EB074072EBD2
:100C800017420CFB08F734BFA2EB0742B2EB074256
:100C900061EB174115EB1C154FEA813141EA924196
:100CA0004FEA823242EA90424FEA80304FEA0C76B5
:100CB00044F1000448EA03434EEA0B484FF0000EAB
:100CC000B2EB080C71EB030724BF624639464EEBCA
:100CD0000E0E4FF0000B0018524149414BEB0B0B2D
:100CE000B2EB080C71EB03077BF1000B24BF6246EB
:100CF00039464EEB0E0E4FF0000B001852414941A1
:100D00004BEB0B0BB2EB080C71EB03077BF1000B09
:100D100024BF624639464EEB0E0E51EA020718BF59
:100D200046F0010616EB0E7655F1000254F1000173
:100D300003D5BDE88901BDE80088BDE88901BDE8AB
:100D40000048B619524141EB0101A3F1010370477C
:100D500080807F7E7D7C7B7A7978777676757473F8
:100D6000727171706F6E6E6D6C6C6B6A6A696868B7
:100D7000676666656464636362616160605F5F5E4D
:100D80005E5D5D5C5C5B5B5A5A59595858575756C3
:100D90005655555554545353525252515150505028
:100DA0004F4F4F4E4E4D4D4D4C4C4C4B4B4B4A4A7A
:100DB0004A494949484848474747474646464545BE
:100DC00045444444444343434342424242414141F7
:100DD000002B26D4770021D01CB54FEA370703B487
:100DE0004FF010004FF010014FF000000FBCBDE8B5
:100DF00010400BF1010BBBF1010F08BF5FEA1707B1
:100E000022BF12F1010211F101014FF0004143F143
:100E1000000300F0004043EA00007047F9D3570890
:100E2000DAE746EA064613F1400F4FEA16461FDDA1
:100E300013F1200FDFBF16430A46002120335B4227
:100E4000C8D0C3F1200746EA064602FA07F74FEA80
:100E5000164646EA0706C3F1200722FA03F201FA12
:100E600007F721FA03F14FF0000342EA0702B1E766
:100E700046EA020646EA06464FEA164646EA0106F2
:100E8000BCBF46EA0646360C4FF000034FF00002A6
:100E90004FF000019EE72DE9C048934630B491E839
:100EA000380007C831EA400C48BF34EA430C03D588
:100EB000FFF7F2FDFFF78CFFF0BCBDE800882DE9DD
:100EC000C048934630B491E8380007C810F0804F0E
:100ED00008BF13F0804F03D100F005F8FFF778FF4B
:100EE000F0BCBDE8008820F07F4780EA030023F0D3
:100EF0007F4C07EB0C03A3F57C5300F00040A3F1FB
:100F0000FE0392F0000F00F0B38095F0000F00F0A8
:100F100077802DE901494FEA11404FEA144621EA52
:100F2000004800FB06FC24EA064708FB06F607FB20
:100F300008F800FB07F718EB06484CEB164C4FEA95
:100F4000124B18EB07484FEA15464CEB174022EAC4
:100F50000B4E0BFB06FC25EA06470EFB06F607FBCD
:100F60000EFE0BFB07F71EEB064E4CEB164C4FF03C
:100F700000061EEB074E4CEB174B18EB0B0840F12D
:100F8000000018EB0E0B58EB000840F100008F1A20
:100F90004FF000013CBFC943661B14BFB5EB040C06
:100FA00000213CBFC943F61B4FEA17444EEA8E0EA0
:100FB00027EA04454FEA1C4704FB07622CEA074C6A
:100FC00005FB07F70CFB05F604FB0CFC16EB0746CC
:100FD00042EB174216EB0C4642EB1C421BEB06069B
:100FE00058EB0202414146EA9E0601D5BDE801895F
:100FF000B619524141EB0101A3F10103BDE801899A
:101000004FEA14454FEA114724EA054621EA074C06
:1010100005FB07F406FB07F70CFB06F105FB0CFCD0
:1010200011EB074144EB17444FEA124711EB0C4117
:1010300044EB1C4422EA074C05FB07F206FB07F7CA
:101040000CFB06F605FB0CFC16EB074642EB1742C1
:1010500016EB0C4642EB1C456A1854F1000148BFE0
:101060007047B619524141EB0101A3F101037047EA
:1010700095F0000F37D04FEA11424FEA144721EAAA
:10108000024624EA074C02FB07F106FB07F70CFBBC
:1010900006F402FB0CFC14EB074441EB17414FEA4A
:1010A000154714EB0C4441EB1C4125EA074C02FBAD
:1010B00007F506FB07F70CFB06F602FB0CFC16EB2C
:1010C000074645EB174516EB0C4645EB1C4212193B
:1010D00051F1000148BF7047B619524141EB01017F
:1010E000A3F1010370474FEA14454FEA114724EA80
:1010F000054621EA074C05FB07F106FB07F70CFB49
:1011000006F24FF0000605FB0CFC12EB074241EB28
:10111000174112EB0C4251EB1C4148BF704792182B
:1011200041EB0101A3F101037047000008B5012163
:101130000D2000F059FE0121154800F0DBFA0820CF
:10114000ADF8000003208DF8020010208DF8030098
:101150006946104800F043FA08210E4800F014FBDD
:101160002020ADF8000069460A4800F038FA202136
:10117000084800F009FB4FF40040ADF80000694654
:10118000054800F02CFA0821034800F0FDFA08BDDC
:1011900000023000000C01400008014010B54FF47F
:1011A000045000F011F844F2891000F00DF844F2F8
:1011B000010000F009F84FF4404000F005F84FF44A
:1011C000005000F001F810BD70B5044608211A481F
:1011D00000F0DAFA4FF40041184800F0D3FA002585
:1011E00021E004F4004060B12021134800F0CCFA63
:1011F0000821114800F0C6FA08210F4800F0C4FA8F
:101200000BE020210C4800F0BDFA08210A4800F04C
:10121000B9FA0821084800F0B7FA4FF6FF7000EA63
:101220004404681CC5B2102DDBDB4FF400410348B9
:1012300000F0AAFA70BD0000000C01400008014057
:1012400021B1826842F00102826003E0826822F0EC
:10125000010282607047000010B5044612488442C3
:1012600008D10121401500F0CFFD0021601500F0EC
:10127000CBFD17E00D48844208D10121001500F094
:10128000C3FD0021201500F0BFFD0BE0084884429B
:1012900008D10121C80300F0B7FD00214FF4004040
:1012A00000F0B2FD10BD0000002401400028014004
:1012B000003C0140014600208A6802F004020AB1A5
:1012C000012000E0002070470146C86C80B27047E2
:1012D0000246002013680B400BB1012000E0002003
:1012E0007047014600208A6802F008020AB1012016
:1012F00000E000207047000030B5024600200023C7
:1013000050680F4C20400D790C6844EA05242043B6
:10131000506090680B4C2040D1E902542C434D7929
:1013200044EA450420439060D06A20F470000C7CAD
:10133000641EE4B2234340EA0350D06230BD000093
:10134000FFFEF0FFFDF7F1FFF0B504460D4600206B
:101350000021092D11DDE068A5F10A0606EB46071C
:10136000072606FA07F18843A5F10A0606EB4606AA
:1013700003FA06F10843E0600CE0206905EB45073D
:10138000072606FA07F1884305EB450603FA06F13E
:1013900008432061072A0FDA606B561E06EB8607AA
:1013A0001F2606FA07F18843561E06EB860605FA45
:1013B00006F10843606322E00D2A0FDA206BD61F86
:1013C00006EB86071F2606FA07F18843D61F06EBB1
:1013D000860605FA06F10843206310E0E06AA2F1F0
:1013E0000D0606EB86071F2606FA07F18843A2F1D1
:1013F0000D0606EB860605FA06F10843E062F0BD2D
:10140000816841F008018160704721B1826842F42F
:10141000A002826003E0826822F4A002826070472A
:10142000816841F0040181607047000010B504211B
:10143000054800F0A9F94021034800F0A5F9202152
:10144000014800F0A1F910BD0008014010B50421C9
:10145000054800F099F94021034800F093F9202154
:10146000014800F091F910BD0008014010B50421B9
:10147000054800F089F94021034800F083F9202154
:10148000014800F07FF910BD0008014010B50421AB
:10149000054800F079F94021034800F075F9202152
:1014A000014800F06FF910BD0008014008B50121A6
:1014B000042000F099FC01211A4800F01BF940209B
:1014C000ADF8000003208DF8020010208DF8030015
:1014D0006946154800F083F84021134800F054F99C
:1014E0002020ADF8000069460F4800F078F8202170
:1014F0000D4800F049F91020ADF8000069460A488F
:1015000000F06DF81021084800F03EF90420ADF815
:1015100000006946044800F062F80421024800F027
:1015200033F908BD000230000008014000B587B063
:1015300001214FF4027000F057FC0121480200F035
:1015400063FC00214FF4007000F05EFC4FF400409B
:1015500000F02EFC0120ADF8040000208DF80700FB
:1015600001A91B4800F03BF81A48FFF775FE002060
:1015700002908DF80C008DF80D004FF4602004905F
:101580000020059001208DF8180002A91148FFF7EE
:10159000B3FE0023012208210E48FFF7D5FE0121EA
:1015A0000C48FFF74DFE0B48FFF72AFF00BF094824
:1015B000FFF797FE0028FAD10648FFF731FF00BF7A
:1015C0000448FFF777FE0028FAD107B000BD0000FD
:1015D000000C01400024014000BFFEE770472DE9E8
:1015E000F0410246002500260020002300240027A9
:1015F00091F803C00CF00F0591F803C00CF0100C2B
:10160000BCF1000F03D091F802C04CEA050591F837
:1016100000C0BCF1000F31D0146800202BE04FF067
:10162000010C0CFA00F3B1F800C00CEA03069E426C
:1016300020D183004FF00F0C0CFA03F7BC4305FADE
:1016400003FC4CEA040491F803C0BCF1280F06D156
:101650004FF0010C0CFA00FCC2F814C00AE091F83B
:1016600003C0BCF1480F05D14FF0010C0CFA00FC8F
:10167000C2F810C0401C0828D1D31460B1F800C0D3
:10168000BCF1FF0F34DD546800202EE000F1080C9F
:101690004FF0010808FA0CF3B1F800C00CEA030699
:1016A0009E4221D183004FF00F0C0CFA03F7BC438C
:1016B00005FA03FC4CEA040491F803C0BCF1280FBE
:1016C00005D100F1080C08FA0CF8C2F8148091F862
:1016D00003C0BCF1480F07D100F1080C4FF001081E
:1016E00008FA0CF8C2F81080401C0828CED35460C9
:1016F000BDE8F081F0B50A46002300240021002552
:1017000000F00046B6F1004F02D11D4EF16901E034
:101710001B4E7168C0F3034583B200F44016B6F562
:10172000401F08D121F07061154E766826F0706672
:10173000134F7E6012E000F48016B6F5801F06D1CC
:10174000032606FA05F4A14341F0706106E0460D58
:10175000360103FA06F6B14341F0706122B1460D3D
:10176000360103FA06F6314300F00046B6F1004FA9
:1017700002D1034EF16101E0014E7160F0BD000045
:1017800000000140416170470161704710B5044697
:1017900001210748FFF739FE00BF02210448FFF787
:1017A00097FD0028F9D00248FFF78EFD10BD00001C
:1017B000002401402DE9F04707460C46002500268D
:1017C00008E03846FFF7E2FF0544142000F026FE4B
:1017D000701C86B2A642F4DB204601F041FD804633
:1017E000284601F03DFD8146414601F057FCBDE829
:1017F000F08700002DE9F04F89B06548006801F0DE
:10180000B3FB0646634A644B01F0C6F90446002266
:10181000624B01F0C1F9624A03C25D48006801F001
:10182000A3FB044622460B465EA0FEF7DBFC6149A3
:1018300009884FF47A7201FB02F001F095F9044631
:1018400022460B46564903C901F036F85A4A03C2EC
:1018500059480CC859A0FEF7C5FC5C495C480068B3
:1018600001F046FD044601F07FFB82468B46594855
:10187000006801F079FB8046464A474B01F08CF93D
:1018800006460022454B01F087F90022434BCDE983
:10189000040101F081F9044647480CC8204601F0D4
:1018A0000BF852465B46CDE9060101F073FA4A4A4D
:1018B00003C249480CC849A0FEF794FC4C48006894
:1018C00001F052FBCDE904014248006801F04CFBF5
:1018D0000646304A304B01F05FF9804600222F4B1C
:1018E00001F05AF9824600222C4B01F055F90446CA
:1018F00031480CC8204600F0DFFF02460B46CDE918
:10190000000100203B4900F0D7FFCDE90201DDE9ED
:10191000042300F0D1FFCDE9060100F0F3FE3649C3
:1019200008600846006801F01FFB044622460B468B
:1019300032A0FEF757FC36480168364801F0D6FD64
:10194000074635480168384601F0D2FC06464FF09C
:101950007E5101F035FB054627480168284601F015
:10196000C7FC044601F000FB2C4A03C2284800686B
:1019700001F0FAFA044622460B4629A0FEF732FC93
:1019800026480CC82AA0FEF72DFC09B0BDE8F08F50
:1019900000000020B4D934E70C684A3F00408F4073
:1019A0001000002041445F436F6E64203D20256697
:1019B0000D0A0000460000200800002043757272E6
:1019C000656E74203D2025660D0A000000007A44F3
:1019D000400000201C000020300000205265736988
:1019E0007374616E6365203D2025660D0A0000005A
:1019F0003800002065CDCD4120000020436F6E648B
:101A00004E6F54656D706572203D2025660D0A008D
:101A1000180000200000C8413C00002028000020E1
:101A200054656D706572203D2025660D0A0000002A
:101A3000436F6E6454656D706572203D2025660DA0
:101A40000A00000070B506460C46154600F01CF969
:101A5000802000F0DFF800F063F9002000F0DAF8F1
:101A600000F05EF900F036F90A2000F0D7FC0A20F9
:101A700000F0D4FC00F008F9812000F0CBF800F071
:101A80004FF90AE025B9002000F08CF8207003E03F
:101A9000012000F087F82070641C2800A5F10101E6
:101AA000CDB2EFD100F016F9012070BD2DE9F84F4D
:101AB000022269460020FFF7C5FF9DF801109DF83E
:101AC000002041EA022001F04FF880460022094B35
:101AD00000F0F2FE06460022074B01F05DF80446D6
:101AE0000022064B01F056F9824600F00BFEBDE8DD
:101AF000F88F00000000F04000A064400000444067
:101B000000BFFEE710B500200F4908600F480068CD
:101B100020F470200D4908600846006840F4403009
:101B2000086000200A49C1F8B001022000F09CFCC6
:101B3000012005490860022000F096FC00200449BD
:101B4000C1F8B40110BD0000B4812142040C014071
:101B50000080214210B500200F4908600F4800683E
:101B600020F470200D4908600846006840F44030B9
:101B7000086001200A49C1F8B001022000F074FC9D
:101B8000012005490860022000F06EFC0020044995
:101B9000C1F8B40110BD0000B4812142040C014021
:101BA0000080214270B5054600241748006820F4E3
:101BB0007020154908600846006840F4002008605D
:101BC000002616E0002011490860022000F04CFCBD
:101BD00001200F49C1F8B4016006040E0B48843897
:101BE000006808B1601CC4B2012000F03DFC701C0C
:101BF000C6B2082EE6DB15B9FFF7ACFF01E0FFF730
:101C000081FF204670BD0000040C0140B4812142D8
:101C10000080214270B504461848006820F4702006
:101C2000164908600846006840F44030086000200B
:101C30001349086000251EE0E00920B10120104989
:101C4000091F086003E000200D49091F08606006B5
:101C5000040E022000F008FC01200949086002205F
:101C600000F002FC00200749C1F8B401022000F096
:101C7000FBFB681CC5B2082DDEDB70BD040C014007
:101C8000B48121420080214210B50F48006820F441
:101C900070200D4908600846006840F44030086034
:101CA00001200A4908600A49C1F8B401042000F083
:101CB000DBFB002005490860042000F0D5FB002074
:101CC0000349C1F8B40110BD040C0140B0812142A8
:101CD0000080214210B50F48006820F470200D49A3
:101CE00008600846006840F44030086000200A4957
:101CF00008600A49C1F8B001042000F0B5FB0120DA
:101D0000054908600549C1F8B001042000F0ACFBAA
:101D100010BD0000040C0140B4812142008021422A
:101D200010B500241448006820F47020124908609F
:101D30000846006840F40020086001200F49086050
:101D400000F092FB01200E49C1F8B40100F08CFBB9
:101D500007E0601CC4B2FA2C03DDFFF7BBFF0120D3
:101D600010BD0648803800680028F2D10349091DDB
:101D7000086000BFF4E70000040C0140B08121427C
:101D80000080214200BFFEE7704710B54FF4A0600D
:101D900000F002F810BD000002490143024A116040
:101DA000704700000000FA050CED00E070470000ED
:101DB00001460020034A506820F440400843506028
:101DC000704700000010024029B1064AD269024360
:101DD000044BDA6104E0034AD2698243014BDA61C1
:101DE000704700000010024029B1064A9269024380
:101DF000044B9A6104E0034A92698243014B9A6161
:101E0000704700000010024029B1064AD268024320
:101E1000044BDA6004E0034AD2688243014BDA6083
:101E2000704700000010024030B50021002200245D
:101E300000232D4D6D6805F00C0121B1042905D05A
:101E4000082923D105E0294D056022E0274D0560D2
:101E50001FE0254D6D6805F47012234D6D6805F483
:101E60008034022505EB92421CB9214D5543056093
:101E70000BE01D4D6D6805F400351DB11C4D55433B
:101E8000056002E0194D5543056002E0174D0560FD
:101E900000BF00BF144D6D6805F0F0010909154D34
:101EA0006B5C0568DD4045600F4D6D6805F4E061D1
:101EB000090A104D6B5C4568DD4085600A4D6D6810
:101EC00005F46051C90A0B4D6B5C4568DD40C56087
:101ED000054D6D6805F44041890B074D6B5CC56885
:101EE000B5FBF3F5056130BD0010024000127A0029
:101EF00000093D006C0000207C00002008B54FF474
:101F00008060ADF8000003208DF8020018208DF8E5
:101F1000030069460748FFF762FB0220ADF80000A6
:101F200069460548FFF75BFB02210348FFF72AFCDF
:101F300008BD0000000C01400008014010B500F091
:101F400005F8FFF7DBFF00F00BF810BD10B501211D
:101F50000820FFF749FF01218804FFF735FF10BD76
:101F60001FB54FF4FA3000900020ADF80400ADF832
:101F70000600ADF80800ADF80C000C20ADF80A0022
:101F80006946044800F09EF90121024800F064F916
:101F90001FBD000000480040704710B500F002F877
:101FA00010BD00000CB5002001900090334800687F
:101FB00040F480303149086000BF3048006800F4C8
:101FC000003000900198401C0190009818B90198C9
:101FD000B0F5A06FF1D12948006800F4003010B1CD
:101FE0000120009001E0002000900098012843D1DA
:101FF0002348006840F01000214908600846006846
:1020000020F0030008600846006840F00200086005
:102010001A484068194948600846406848600846C0
:10202000406840F4806048600846406820F47C10B6
:1020300048600846406840F4E81048600846006878
:1020400040F08070086000BF0C48006800F000702D
:102050000028F9D00948406820F00300074948608B
:102060000846406840F00200486000BF03484068EE
:1020700000F00C000828F9D10CBD0000001002404F
:1020800000200240042808D14FF0E021096941F006
:1020900004014FF0E022116107E04FF0E0210969EF
:1020A00021F004014FF0E0221161704770470000F9
:1020B00010B51348006840F0010011490860084657
:1020C0004068104908400E494860084600680E49BB
:1020D00008400B4908600846006820F4802008602A
:1020E0000846406820F4FE0048604FF41F008860F6
:1020F000FFF753FF4FF000600449086010BD000077
:10210000001002400000FFF8FFFFF6FE08ED00E0BF
:1021100070B501211B4800F04AF8002830D0012199
:10212000184800F041F84FF480711748FFF72AFB78
:102130000020164908800CE00020FFF727FB144917
:10214000124A128821F8120010480088401C0F49DA
:1021500008800E4800887828EEDB4FF480710A482A
:10216000FFF712FBFFF7A2FC0A4908600846006867
:1021700000F0FAFE044622460B4607A0FEF732F8AE
:1021800070BD000000040040000801408A000020EB
:10219000540100201800002054656D706572203DC8
:1021A0002025660D0A000000CA430282704730B540
:1021B0000246002000230024158A05EA01039589C0
:1021C00005EA010413B10CB1012000E0002030BD8C
:1021D00010B540F225511D4800F04AF810B31B48D5
:1021E00000F0DCF8C4B21A48008800F40040C8B916
:1021F0001748008800F4804060B10A2C03D000200A
:102200001349088020E01248008840F4004010493B
:10221000088019E00D2C06D10D48008840F480405C
:102220000B49088010E00A480088C0F30D000949F6
:102230000C5407480088401C05490880084600885F
:10224000C72801DD0020088010BD000000380140D3
:10225000880000208C00002021B1828942F40052C5
:10226000828104E082894DF6FF731A4082817047B3
:1022700070B50246002400230025002040F66A16AF
:10228000B14200D100BFC1F3421501F01F03012686
:1022900006FA03F3012D02D19689334006E0022DA0
:1022A00002D1168A334001E0968A33400C1201268F
:1022B00006FA04F41688344013B10CB1012000E092
:1022C000002070BD2DE9F04786B005460E4600247B
:1022D000A24600BFA1460027B08900B100BF2F462B
:1022E0002C8A4CF6FF700440F08804432C82AC89A1
:1022F0004EF6F3100440B0883189084371890843D1
:102300000443AC81AC8A4FF6FF400440B0890443DB
:10231000AC8201A8FFF788FD1F48874202D1DDF893
:1023200010A001E0DDF80CA0A88900F4004040B145
:102330000AEBCA0000EB0A1031684900B0FBF1F863
:1023400007E00AEBCA0000EB0A1031688900B0FB15
:10235000F1F86420B8FBF0F004012009642101FBCE
:102360001089A88900F4004040B1322000EBC90078
:10237000B0FBF1F000F00700044308E0322000EB6E
:1023800009106421B0FBF1F000F00F0004432C8130
:1023900006B0BDE8F087000000380140014688889B
:1023A000C0F30800704700BFFEE7490050EAC120B3
:1023B00018BF04204A0D18BF40F0010040F2FF7220
:1023C000B2EB515F08BF40F00200012808BF0520B2
:1023D0007047014600BF704710B56FF00400FFF76B
:1023E00051FE0A4800680A49B0FBF1F0094908703B
:1023F0000846007800EB4001C1EBC0104FF6FF71BA
:1024000001EAC0000449088010BD00005800002007
:1024100000127A0080000020820000200146114A4C
:1024200012884A434FF0E0235A6100229A611A460B
:10243000126942F001021A6100BF4FF0E0221069F8
:1024400000F001021AB100F48032002AF5D04FF0FA
:10245000E022126922F001024FF0E0231A6100220B
:102460009A617047820000200146114A12784A435F
:102470004FF0E0235A6100229A611A46126942F035
:1024800001021A6100BF4FF0E022106900F0010262
:102490001AB100F48032002AF5D04FF0E022126920
:1024A00022F001024FF0E0231A6100229A61704786
:1024B0008000002000BF054A128802F04002002A76
:1024C000F9D0C2B2014B1B1D1A8070470048004072
:1024D0006424FFF781FFFFF758FCFFF72FFDFEF79D
:1024E00025FEFEF75BFEFEF7E1FFFEF79FFFFFF71D
:1024F0001DF821460820FFF75DF94F49086099E073
:10250000FEF794FF21460820FFF754F94A49086076
:1025100013E04A484A4908604A48006800F080FED3
:1025200049490880FFF766F948A0FDF75BFE2146A0
:102530000820FFF73FF9404908604B493E480068D2
:1025400000F0A2FEE5D9FEF781FF21460820FFF743
:1025500031F93949086013E0444839490860444872
:10256000006800F05DFE38490880FFF743F941A09C
:10257000FDF738FE21460820FFF71CF92E490860B8
:1025800042492D48006800F07FFF05D836492A48A7
:10259000006800F079FEDFD9FEF778FF21460820B9
:1025A000FFF708F92449086014E0962438482449C4
:1025B00008603848006800F033FE23490880FFF7C0
:1025C00019F935A0FDF70EFE21460820FFF7F2F8B5
:1025D000194908602D491848006800F055FF05D8D2
:1025E00033491548006800F04FFEDED9FEF73EFF84
:1025F00021460820FFF7DEF80F49086014E0962412
:102600002C480F4908602C48006800F009FE0E496C
:102610000880FFF7EFF829A0FDF7E4FD2146082028
:10262000FFF7C8F8044908602A490348006800F029
:102630002BFFE4D364E700000000002066667F43C0
:102640001C00002054000020460000204144473177
:102650003630345F4368616E6E656C5F3130304B8D
:1026600028290A0A000000000000FA44333383439B
:1026700050000020414447313630345F4368616E7A
:102680006E656C5F31304B28290A0A000000344324
:102690007BD482434C000020414447313630345FC4
:1026A0004368616E6E656C5F334B28290A0A00002F
:1026B0000080BB4466E68143480000204144473126
:1026C0003630345F4368616E6E656C5F314B28292C
:1026D0000A0A00000000E14310B500290AD008787A
:1026E000002807D005487844FEF724F9002801D0D7
:1026F000002010BD0248784410BD0000AA0F000061
:10270000A20F000021F00042A2F16052B2F5801F3A
:1027100001F0004328BFD2F17F6C0BD95FEA001CA7
:1027200043EAC20242EB507018BF704728BF20F046
:1027300001007047B2F5801FBCBF184670474FEAD2
:10274000410C1CF5001F02D2084600F098BE70B57F
:1027500000F0CCFA00000089FFF7F6BF4FF0004010
:10276000A0F580007047000010B591EA030F48BF44
:1027700083F0004300F11683841A71EB030C05D239
:10278000121943EB0C03001B61EB0C01DFF824E191
:102790004FEA1154A4EB135C1EEA430F18BF9EEAE4
:1027A000445F73D023EA0E03DCF1200E21EA0451CA
:1027B00043F4801332D322FA0CFE10EB0E0023FAFE
:1027C0000CFE41EB0E01CCF1200E03FA0EFE10EBD5
:1027D0000E0051F10001B1F5801FCCF1200E32D274
:1027E00001EB045112FA0EF2BDE8104058BF7047D9
:1027F000401C38BF5FEA420218BF7047002814BF70
:1028000020F0010041F100014FEA410313F5001FE0
:1028100038BF7047A1F1C04100F0B6BA012A43EBBE
:102820000302ACF1200CDCF11F0E32BF4FF0000EA2
:1028300023FA0CF310EB030041EB0451B4EB115FEE
:10284000D0D0A1EB045101F5801149085FEA3000B6
:1028500001EB04510ED350F1000038BF12FA0EFE06
:1028600008D1BDE81040C9E7401C38BF5FEA42020A
:10287000CAD1C3E7BDE810404FEA410313F5001F7A
:1028800038BF7047A1F1C04100F07EBA9EEA445FB4
:1028900008D011EA5E0FBDE8104004BF01F000410E
:1028A00000207047BDE8104070B500F01FFA00BF6F
:1028B00064FBBE3E0000E0FF2DE9C04130B4DFF80C
:1028C000A0C23CEA111418BF3CEA131400F0EC80DB
:1028D00081EA03051CEA111444EAD57418BF1CEA06
:1028E000131500F0C780A4EB05044FF0004545EA3E
:1028F000C12145EAC32341EA505143EA525304F14E
:102900007F74994204F500344FEAC0204FEAC22296
:1029100008BF904200F09C804FEA13650FF240160A
:10292000765D4FEA134506FB05F7C7F1807706FB96
:1029300007F74FEAD737A7FB03687642C8F5803818
:10294000A7FB06CE38BFA8F1010807FB08E64FF049
:10295000000EA6FB028CE6FB03CEDCF1000CCEF1F0
:10296000004E38BFAEF1010EA6FB0C584FF0000729
:102970004FF00005E6FB0E87A1FB08C6A0FB07CEC3
:1029800016EB0E0645F10005E1FB076515F1E04E7B
:102990007EBFA4F580345FEA46066D4116F18007DC
:1029A00045F100054FEA17274FEA066647EA056733
:1029B000A6F1DE46B6F1805F4FEA15251FD93846ED
:1029C00024F0010C05EBC471BCF1FE6F01EB0C119E
:1029D00002D8F0BCBDE8008124425CBF01F5801E36
:1029E0009EEAC47F02D4F0BCBDE80081244238D402
:1029F000F0BCA1F1C041BDE8004100F0C5B94FEA0B
:102A0000D22242EA43524FEAD323A7FB02864FEA7F
:102A1000D02040EA415007FB03661EEA0E0F4FEA42
:102A2000D12105FB026658BFA6EB0056B6EB005657
:102A30004FEA520E4EEAC37E18EB0E0E56EB530EC3
:102A4000BDD518EB02085E417F1C55F10005B6E7C5
:102A50004FF480154FF000074FF000064FF00008CC
:102A6000ADE7F0BC4FF0000001F1C04101F00041C2
:102A7000BDE8008111EA0C1F0CEA131500D00CE030
:102A800013EA0C1F00F025804FF00000F0BC81EA33
:102A9000030101F00041BDE80081F0BCBDE8004148
:102AA00081EA030100F070B9F0BCBDE8004170B5E7
:102AB00000F01CF9097EFC3E00F007B881EA030132
:102AC0004FF0000001F00041704781EA030100F07F
:102AD0005BB9F0BCBDE800414FF0000021497047F0
:102AE000FFFDFBF9F7F5F4F2F0EEEDEBE9E8E6E4D3
:102AF000E3E1E0DEDDDBDAD8D7D5D4D3D1D0CFCD5A
:102B0000CCCBCAC8C7C6C5C4C2C1C0BFBEBDBCBB92
:102B1000BAB9B8B7B6B5B4B3B2B1B0AFAEADACAB8D
:102B2000AAA9A8A8A7A6A5A4A3A3A2A1A09F9F9E67
:102B30009D9C9C9B9A999998979796959594939319
:102B4000929191908F8F8E8E8D8C8C8B8B8A8989B0
:102B50008888878786858584848383828281818033
:102B60000000FF070000F87F10F0004248BF40421D
:102B7000B0FA80F310FA03F10AD0C3F11D0303F594
:102B800080634FEA415002EB035202EBD1217047C0
:102B90004FF0000070470000DFF848C170B51CEA34
:102BA000111E1EBF1CEA13159EEA0C0F95EA0C0FAE
:102BB00000F06F8081EA030423EA4C134EEAD47ECE
:102BC00021EA4C1141F4801143F48013AE44A1FB7F
:102BD000024CA0FB0365AEF17F7E361955EB0C0568
:102BE000A1FB034C4CF10003A0FB021C16EB0C06EE
:102BF000654153F10003094218BF46F0010613F482
:102C0000007F0BD14FEA03314FEA0530340341EA2C
:102C1000155140EA16506FF003020AE04FEAC32153
:102C20004FEAC520F40241EA555140EA56506FF090
:102C3000020202EB2E4201EB025585EACE710AD068
:102C40005FEA440C18BF24F0004450F1000041F149
:102C5000000120EAD47040F2FE7C624500D270BDD3
:102C6000A84214BF4FF080444FF04044002E08BFEC
:102C70000024BEF1806FA8BFA1F1C041BDE8704043
:102C800080F282804FF0000001F1C04101F000416C
:102C900070479EEA0C0F0CEA131518BF95EA0C0F4B
:102CA00006D04FF0000081EA030E0EF0004170BD27
:102CB00000F01CF88900013E00F007B800F009B8E8
:102CC0004FEA430C5FEA5C5C08D081EA030100F044
:102CD0005BB84FEA410C5FEA5C5CF6D14FF0000054
:102CE000014970470000FF070000F87F0EF1020E57
:102CF0002EF0030E5EF8046B364205D4012A43EB36
:102D0000030515F5001F12D8012841EB010C1CF535
:102D1000001F0CD80ED14FEAD17C15F5001F0CEB2B
:102D20004C0C0CF1020C08BF4CEBD37C04E04FF0D0
:102D3000080C01E04FEAD37C0CEB4C0526FA05F6B3
:102D400006F00706B6F1040C06D20EEB860CBDE8C1
:102D500070404CF0010C6047DFE80CF0090B0202F8
:102D60004FF000414FF00000A1F5002170BD194661
:102D70001046012851EB010418BFD4F5001484BF9C
:102D8000002001F0004170BD0808A0F500114FEAD5
:102D90003101704710B591EA030F48BF83F000433B
:102DA0003FF5EAAC841A71EB030C07D212198CF0D0
:102DB000004C43EB0C03001B61EB0C01DFF8A4E1BA
:102DC0004FEA1154A4EB135C1EEA430F18BF9EEAAE
:102DD000445F00F0B08023EA6E03524221EA0451BE
:102DE000C3EB6E0338BF5B1EDCF1200E25D322FA45
:102DF0000CFE10EB0E0043FA0CFE41EB0E01CCF181
:102E0000200E03FA0EFE10EB0E0051F10001CCF182
:102E1000200E29D412FA0EF201EB0451BDE8104045
:102E200058BF7047401C1CBFB2F1004F70470028CC
:102E30000CBF491C20F00100704712EB020E43EB5F
:102E4000030218BF4FF0010E4EEA4202ACF1200C13
:102E5000DCF11E0E54D943FA0CFE10EB0E0051F1BA
:102E6000FF31CCF11E0ED5D50EF1010E12FA0EFE79
:102E7000404141EB010101EB445C5FEA5C5C10D92D
:102E800010EBDE7001EB045138BFBEF1004FBDE81E
:102E9000104018BF704700280CBF491C20F00100EB
:102EA000704730D24FEAD42C11F5001124F400649D
:102EB0001BD0B1FA81F20B3AA41AA41ED2F120035E
:102EC000914030FA03F31943904001EBCC71002C90
:102ED00001EB0451BDE81040A8BF704701F1C041AB
:102EE0004FF0000001F000417047B0FA80F310FA93
:102EF00003F100D110BDE41A173C4805C90AE4E704
:102F000001EB045110BD491001EB0451BDE8104024
:102F10004FEA300002E04FF0000170474A0008BF5E
:102F20000042F8D0B2F5001F28BF704701F0004101
:102F30004FF0000070479EEA445F07D011EA5E0F31
:102F4000BDE8104004BF002100207047BDE81040DC
:102F500070B5FFF7CBFE00BF40DFF63E83F00041C7
:102F6000104670470000E0FF43004FEAD30C4FEAE1
:102F70003C0C43401FBF40070CF1605113F0FE4F63
:102F800070471CF0006F03D100200CF00041704727
:102F90000CF0004343EA507010B540EACC0000F05A
:102FA00028FA00BF000000924FEA0001FFF7ECBED4
:102FB0004FF000414FF00000A1F5002170470000E4
:102FC00090EA010F48BF81F0004100F19682421A59
:102FD0003CBF801A89184FEAD0524FF07F4C1CEA50
:102FE000410FA2EBD15318BF9CEA026F00F03B8067
:102FF0004FF0004C4CEA00204CEA012121FA03FC7E
:1030000010EB0C0C1ED202F1FF325FEA1C2040EBE9
:10301000C25038BF70471CF07F0F4FEA400C18BFFA
:10302000BCF17F4F38BF7047C3F12003994008BF00
:1030300020F00100BCF17F4F38BF7047A0F1C040C5
:1030400000F01DBA4FEA3C00000A40EBC25028BF16
:103050001CF0FF0F4FEA400CE6D018BFBCF17F4FC9
:1030600038BF7047EAE79CEA026F05D010EA5C0FB0
:1030700008BF00F00040704710B500F0BAF900BF7B
:1030800064FBBE3E401058BFC0F14040491058BFDD
:10309000C1F140418142EFF3008070474FF47F0C53
:1030A0001CEAD0121EBF1CEAD11392EA0C0F93EA5D
:1030B0000C0F00F0858090EA010F48BF42F4807247
:1030C00040F4000C41F400002CF07F4120F07F40E0
:1030D00000B58142A2EB03020FF2081CACEB504E8C
:1030E000C0F100009EF800E04FEA4E0E00FB0EFC1F
:1030F00038BF49004FEA2C1C02F5FA020CFB0EF314
:103100004FEACE1E4FEA112C4FEAC1210EEB635E4F
:1031100042EB22420EFB0CFC4FEA1C5300FB031156
:103120004FEA112C4FEA01310EFB0CFC4FEADC4C4C
:1031300000FB0C11C14228BF09184CEB03335DF8AA
:1031400004EB10EB410143EBC250B2F57C0F38BFEA
:10315000704729D512F0F00F1CBF00F1C04000F0FD
:1031600000407047008182838485868788898B8CA4
:103170008D8E8F919293959697999A9C9D9FA0A2E0
:10318000A3A5A7A8AAACAEB0B2B3B5B7B9BCBEC030
:10319000C2C5C7C9CCCED1D4D7D9DCDFE2E6E9ECD1
:1031A000F0F3F7FAFE0000004FEA400C0CF1807CCF
:1031B000BCF17E4F28BF7047B0F1C04000F05FB94E
:1031C00090EA010F0CEAD11348BF42F480726245C5
:1031D00038BF634507D213F47F0F16D080EA010091
:1031E00000F00040704710B500F003F9097EFC3E86
:1031F00000F005B880EA010000F00040704780EA66
:10320000010000F0004000F03AB912F47F0F04BF53
:103210000248704780EA010000F031B90000C07F29
:10322000C10DD1F19E0206DB4FEA002343F00043BB
:1032300023FA02F07047004207D54FEA4001B1F18E
:10324000FE4F02D24FF00000704710B500F0D1F8E9
:1032500049922480002070476FEA200070470000E8
:10326000B0FA80F310FA03F2C3F19D030AD0D90536
:1032700001EB1220530638BF704700F1010008BF70
:1032800020F001007047000050EA010C00F11380AB
:103290001CF5000F58BFBCF5000F01D488427047E1
:1032A00007D710F5000F58BF11F5000F15D488424D
:1032B0007047894270471CF5000F04D5BCF5000F1C
:1032C000F7D5814270474FF0807C1CEB400F38BF30
:1032D0001CEB410F01D28142704710B500F089F814
:1032E000922449004FF000504FF08051FFF7CABEC2
:1032F0004FF47F0C1CEAD0121EBF1CEAD11392EAD5
:103300000C0F93EA0C0F00F0478090EA010F48BFC2
:1033100042F480724FF0004C4CEA00204CEA01214C
:1033200002EB0302A0FB0113A2F50002002918BF63
:1033300043F001035B0028BF4FEA330342EB224214
:103340005FEA132C4CEBC2502EBFBCEB436FB2F5BF
:103350007C0F70474FEA036CBCF1004F08BF20F0B0
:103360000100B2F57C0F38BF70470BD582F0FF0229
:1033700012F5803FC8BF704700F1C040D8BF00F0D1
:103380000040704700F5000C5FEA4C0C48BF7047E6
:10339000B0F1C04000F073B890EA010F0CEAD1130D
:1033A00048BF42F48072624538BF634504D280EA68
:1033B000010000F00040704710B500F01AF800BF9F
:1033C0008900013E00F007B800F009B85FEA410C3F
:1033D0005FEA1C6C08D080EA010000F050B85FEA98
:1033E000400C5FEA1C6CF6D14FF00040A0F5800065
:1033F00070470EF1020E2EF0030E5EF8044B2442CD
:1034000004D44FEA4102B2F17F4F11D84FEA400392
:10341000B3F17F4F0CD80ED14FEAD07CB2F17F4F81
:103420000CEB4C0C0CF1020C08BF4CEBD17C04E013
:103430004FF0080C01E04FEAD17C0CEB4C0324FA6E
:1034400003F404F00704B4F1040C06D20EEB840C70
:10345000BDE810404CF0010C6047DFE80CF00708B5
:1034600002024FF00040A0F5800010BD0846420067
:1034700018BFD2F1807288BF00F0004010BDFF215C
:1034800041EAD050C005704751EA000C00F11380AA
:103490001CF5000F58BFBCF5000F01D481427047E6
:1034A00007D711F5000F58BF10F5000F15D4814252
:1034B0007047894270471CF5000F04D5BCF5000F1A
:1034C000F7D5884270474FF0807C1CEB410F38BF26
:1034D0001CEB400F01D28842704780EA010081EA6C
:1034E000000180EA0100FFF7F8BE000090EA010F3A
:1034F00048BF81F000413FF56AAD421A04D882F01E
:103500000042A0EB020011444FEAD0524FF07F4C32
:103510001CEA410FA2EBD15318BF9CEA026F4AD0BC
:103520004FF0004C4CEA00204CEA012121FA03FC48
:10353000B0EB0C0C0FD412F0FE0F36D05FEA4C004B
:103540001DD5001240EBC25038BF70471CF03F0F32
:1035500018BF70470BE0A2F101025FEA1C2040EBAC
:10356000C25038BF70471CF07F0F18BF7047C3F1BF
:103570002003994014BF401E20F0010070478008CE
:103580004FEA122308BF7047B0FA80FCA2EB0C028E
:10359000CCF1280C60FA0CF093EA122F04BF00EB78
:1035A000C25070474FEAC3707047130A5FEADC10DD
:1035B00008BF7047F6E79CEA026F04D010EA5C0F80
:1035C00008BF0020704710B5FFF713FF40DFF63E3D
:1035D00081F000407047FCF720BF0000024000006F
:1035E000000000A00000000005400000000000C82E
:1035F000000000000C4000000000409C00000000A3
:10360000194000000020BCBE000000003440000053
:10361000BFC91B8E00000004B5400000504BCFD046
:103620006607E2CF010000006C4100003E8251AA13
:10363000DFEEA73401000000D9420000DCB5A0E2B3
:103640003A301F97FFFFFFFFB4450000FD25A0C8DB
:10365000E9A3C14FFFFFFFFFFF3F00000000008014
:1036600000000000FF3F000000000080000000009C
:10367000AC360008000000208C0000002801000883
:10368000383700088C0000201C08000044010008A6
:103690001C00000043000000F8FFFFFF0C000000CA
:1036A0000E0000000F0000002E00000000000000CF
:1036B000000000000000000000000000000000000A
:1036C000000000000000B041000084430000000042
:1036D00000000000000000000000000000000000EA
:1036E000000000000000803FE3A59B3C00000000BC
:1036F00000000000C520803F6210404019042041B6
:103700008300C84200A24A0400000000000000003C
:103710000102030406070809000000000102030477
:10372000010203040607080902040608000000005D
:08373000000000000000000091
:04000005080000ED02
:00000001FF
