:020000040800F2
:10000000801A0020C1010008A1600008913C00088E
:10001000A55B00083F09000859AE00080000000079
:1000200000000000000000000000000061910008D6
:10003000C522000800000000B565000809A10008FD
:1000400085AE00084565000885A10008216C000800
:1000500059300008DD6A0008BD250008DF250008CA
:10006000E1250008E3250008FF25000861140008C9
:100070006314000865140008671400086914000878
:100080006B1400086D1400080F0300085DAD000834
:10009000D1AD00084B0900084D09000801260008F1
:1000A00087A100088DA100088BA1000889A1000884
:1000B00049A200084BA200084DA20008853E000896
:1000C000833E0008893E0008873E0008498B0008EF
:1000D0004D8B000831AA000833AA000835AA000891
:1000E000BF250008A96B000815AD000855A200083F
:1000F0005BA2000859A2000857A2000811030008DB
:100100008D300008A57D00084FA20008698B00080B
:100110002DAA00082FAA000851A2000853A2000827
:100120006F14000871140008731400087514000897
:10013000DFF80CD000F08CF8004800471DB500082F
:10014000801A002030BF704720BF704740BF704703
:10015000BFF36F8F7047BFF34F8F7047BFF35F8F51
:10016000704701DF7047EFF31480704780F3148805
:10017000BFF36F8F7047EFF30980704780F30988F2
:100180007047EFF30880704780F30888704762B6C5
:10019000704772B67047EFF31080704771B67047C2
:1001A00061B67047EFF31380704780F31188704792
:1001B000EFF31280704740BA704700BA70470000F2
:1001C000004800473101000840EA01039B0703D0C3
:1001D00009E008C9121F08C0042AFAD203E011F886
:1001E000013B00F8013B521EF9D270472DE9F05F48
:1001F0000546002092469B46884606468146402496
:100200001BE0284641464746224600F042F8524647
:100210005B46801A994110D310461946224600F0D9
:1002200029F82D1A67EB01084F46224601200021CC
:1002300000F020F817EB00094E41201EA4F1010444
:10024000DFDC484631462A464346BDE8F09F0000C1
:10025000064C074D06E0E06840F0010394E8070013
:1002600098471034AC42F6D3FFF766FF94CB0008F2
:10027000B4CB0008202A04DB203A00FA02F1002067
:1002800070479140C2F1200320FA03F319439040D4
:100290007047202A04DB203A21FA02F0002170473F
:1002A00021FA02F3D040C2F12002914008431946DE
:1002B000704770B501EB020410F8015B15F00703FD
:1002C00001D110F8013B2A1106D110F8012B03E0EF
:1002D00010F8016B01F8016B5B1EF9D12B0705D4F7
:1002E0000023521E0FD401F8013BFAE710F8013B3E
:1002F00002F10202A1EB030303E013F8015B01F832
:10030000015B521EF9D5A142D6D3002070BD7047C3
:1003100070470029816802D041F0010101E021F01D
:10032000010181607047C06C80B2704710B54268AF
:100330000E4B0C791A400B6842EA042213434360C7
:1003400082680B4B1A40D1E9024323434C7942EABD
:10035000440213438360C26A097C22F47002491E7E
:10036000C9B242EA0151C16210BD0000FFFEF0FFB8
:10037000FDF7F1FF70B5072509290AD9C468A1F175
:100380000A0606EB4606B540AC43B3401C43C460C6
:1003900007E0046901EB4106B540AC43B3401C43A0
:1003A00004611F23072A09D2446B521E02EB82020A
:1003B00093409C4391400C43446370BD0D2A09D285
:1003C000046BD21F02EB820293409C4391400C438A
:1003D000046370BDC46A0D3A02EB820293409C43F1
:1003E00091400C43C46270BD0029816802D041F481
:1003F000A00101E021F4A0018160704710B54FF623
:10040000FF74204604F0ABFB002004F067FA00BF45
:1004100006F0C4FC0028FBD11F2004F057FD204645
:1004200004F08CFD002004F0ADFB18A1182004F0AE
:100430004BFC1CA1302004F047FC20A1482004F014
:1004400043FC602004F09EFB22A1782004F03CFCD9
:1004500026A1902004F038FC2AA1A82004F034FC46
:10046000C02004F08FFB2DA1D82004F02DFC00BF8C
:1004700006F094FC0028FBD0204604F070FB02F04C
:1004800017F8BDE81040012004F028BA20202053BE
:10049000544D33323130452D4556414C20202020DB
:1004A0000000000020202044656D6F6E737472613F
:1004B00074696F6E2020202000000000202020564C
:1004C000657273696F6E20312E312E32202020200C
:1004D000000000004D4344204170706C69636174FA
:1004E000696F6E205465616D00000000202020437C
:1004F0004F5059524947485420323030382020203C
:10050000000000002053544D6963726F656C656391
:1005100074726F6E6963732000000000202077778B
:10052000772E73742E636F6D2F73746D33322020AA
:100530000000000070B5002004F0D0F906F02EFC99
:100540000028FBD101210C02204606F0C1F94FF62C
:10055000FF75284604F003FB80231A46DF21A02004
:1005600004F0C6FC0A4804F067FC0121204606F0AE
:10057000AFF904F03FFE00F05FF8284604F0EFFA10
:1005800001F096FFBDE87040012004F0A7B900001B
:10059000540FFE642DE9F0474FF46168B0FBF8F6A4
:1005A0000746F0B20A24B0FBF4F0224DF421687142
:1005B0003030C2B2C02004F02DFBB6FBF4F004FBD7
:1005C000106028713030C2B2E421C02004F022FB58
:1005D00008FB16774FF03C0AB7FBFAF909F0FF0861
:1005E000B8FBF4F606F13000C2B2EE70C421C020B0
:1005F00004F010FB04FB1680A8703030C2B2B621A4
:10060000C02004F007FB0AFB1977B7FBF4F606F1EC
:100610003000C2B26E709621C02004F0FBFA04FBD9
:1006200016702870BDE8F0473030C2B28621C02075
:1006300004F0F0BA1605002010B51F2004F046FCA7
:100640004FF6FF7004F07AFC042000F053F9A0F597
:100650002541A5390DD01DA1C02004F035FB21A1F5
:10066000D82004F031FB00BF06F098FB0028FBD037
:1006700010BD182000F03EF904461C2000F03AF9A5
:1006800044EA0044C02004F07DFA3A22D421C0207C
:1006900004F0C0FA3A22A621C02004F0BBFA20469A
:1006A000FFF778FF00F02AF8044606F025FB204605
:1006B00006F0F2FA06F020FBA1B2182000F020F9B3
:1006C000210CBDE810401C2000F01AB954696D657A
:1006D000206E6F7420636F6E666967757265642043
:1006E00000000000202020202050726573732053EA
:1006F000454C202020202020000000002DE9F04162
:10070000264C002302226179F42006F009FB0546FD
:10071000022835D0217900230922E42006F000FBCD
:1007200005EB850100EB4105E17800230522C4209B
:1007300006F0F6FA0646A17800230922B62006F054
:10074000EFFA06EB860100EB4106617800230522F3
:10075000962006F0E5FA0746217800230922862034
:1007600006F0DEFA07EB870100EB41004FF4616110
:100770004D43C6EB061105EB81010844BDE8F0814D
:100780002079032801D900202071C1B2002303225F
:10079000E42006F0C5FA00F11405C5E716050020AF
:1007A00070B5002004F09AF806F0F8FA0028FBD1A2
:1007B00001210D02284606F08BF84FF6FF74204603
:1007C00004F0CDF980231A46DF21A02004F090FB2D
:1007D000264804F031FB0121284606F079F804F0A0
:1007E00009FD1F2004F072FB204604F0A7FB042043
:1007F00000F080F8A0F52541A5390CD01CA1C0203F
:1008000004F062FA20A1D82004F05EFA06F0C6FADD
:100810000028FBD020E0182000F06CF805461C20D2
:1008200000F068F845EA0045C02004F0ABF93A2230
:10083000D421C02004F0EEF93A22A621C02004F011
:10084000E9F92846FFF7A6FE06F0A8FA0028FBD132
:1008500006F0A4FA0028FBD0204604F080F901F04D
:1008600027FEBDE87040012004F038B8540FFE6444
:1008700054696D65206E6F7420636F6E666967756D
:100880007265642000000000202020202050726546
:1008900073732053454C20202020202000000000AE
:1008A00010B505F00FF908B1012010BD0A4C642203
:1008B000A1680A4805F0C4F8084803F06DFE6070AE
:1008C000607808B1022010BD044964314869E060D5
:1008D0008968618010BD00000C070020700A0020AC
:1008E00010B5012006F030F8BDE81040002006F0F9
:1008F0002BB800000149405A70470000006C0040CE
:10090000014A815270470000006C004010B578B178
:100910004FF48054012805D002280FD11021012066
:1009200008F0F0FC2146BDE81040022008F0A8BC09
:100930001021BDE81040012008F0E4BC10BDFEE726
:10094000C1B2000A40EA01207047704770470000BA
:1009500070B56149614C00204A88A4F1400302E06F
:100960001D5C2554401C15469042F9D35B486368D2
:1009700020301F2D4360A368836007D00220FFF75B
:10098000C5FF00202060607B1A2221E0E27B282A3C
:1009900001D02A2A0AD1D4F81100237D00BA20F010
:1009A000FF0018434860E08A40BA88604C4B2068DA
:1009B000984252D14B4B607B1B68984203D8A37B73
:1009C0000BB1102B0DD90220FFF7A0FF607B242272
:1009D000052108F005FDBDE870400021012008F068
:1009E000C9BC252A58D01ADC152A71D00DDC082A7A
:1009F0006ED005DCBAB3032A36D0042A2DD163E0C9
:100A00000A2A65D0122A28D132E01A3A0A2A24D2B8
:100A1000DFE802F03632235E32232323233E8A2A84
:100A200056D00EDC552A53D006DC282A3CD02A2A80
:100A300040D02F2A11D143E05A2A25D0882A0CD140
:100A400046E0A82A44D004DC8F2A41D09E2A04D153
:100A50003EE0AA2A3CD0AF2A3AD00220FFF756FF48
:100A6000607B2022B4E71BE0BDE8704006F074BD57
:100A7000BDE8704006F08EBCBDE8704006F078BD61
:100A8000BDE8704006F0C0BCBDE8704006F0B6BCE2
:100A9000BDE8704006F02ABDBDE8704006F0EEBC2F
:100AA000BDE8704006F068BD091D06C9BDE870408C
:100AB00006F0B0BC091D06C9BDE8704006F092BD45
:100AC000BDE8704006F074BDBDE8704006F044BC5F
:100AD000BDE8704006F078BCD4090020E015002085
:100AE00055534243740600202DE9F0470025074680
:100AF0000C4690469A462E4606F0C4FB03F0D0FC06
:100B0000002C7DD0102C7CD00124DFF8F891B807A0
:100B100060D5B8F1000F75D02146042000F062F9CD
:100B200005460021052000F05DF905444021002024
:100B300000F058F9054408F015FC012271214846DF
:100B400008F055F83C21062000F04CF90544E1215D
:100B5000082000F047F9054400210B2000F042F97D
:100B600005442021072000F03DF90544C12109205A
:100B700000F038F90544C1210C2000F033F9054498
:100B80000021052000F02EF9054409210F2000F076
:100B900029F9054418210E2000F024F90544514696
:100BA0000A2000F01FF9054451460D2000F01AF903
:100BB00005447421002000F015F9054446F0300189
:100BC000012000F00FF9054446F07001012000F00B
:100BD00009F90544F8075ED0B8F1000F7ED0214630
:100BE000042000F0FFF844190021052000F0FAF875
:100BF000044440215FF0000000F0F4F8044402E0F7
:100C000053E054E055E008F0ADFB01227121484665
:100C100007F0EDFF0221052000F0E4F80444202154
:100C2000022000F0DFF804441021032000F0DAF87D
:100C300004443C21062000F0D5F80444E1210820BA
:100C400000F0D0F8044400210B2000F0CBF804445D
:100C50002021072000F0C6F804449121092000F06B
:100C6000C1F8044491210C2000F0BCF80444514622
:100C70000A2000F0B7F8044451460D2000F0B2F805
:100C800004445421002000F0ADF80444A0210220C7
:100C900000F0A8F8051900227121484607F0A7FFC7
:100CA00006F0F0FA2846BDE8F08703242DE7022479
:100CB0002BE7012644F02001042000F093F80546BC
:100CC0000321052000F08EF805444021002000F0AB
:100CD00089F80544012108462AE7FFE744F020018E
:100CE000042000F07FF844190321052000F07AF871
:100CF00004444021002000F075F804440121084616
:100D00007AE70000003800402DE9F041324C0646F9
:100D10000021204603F0D2F80121204603F089FA91
:100D20000021204603F085FA03F0D2F80121204685
:100D300003F004F9294D2046294603F0B0F80028B5
:100D4000F9D00021204603F0A0F8002227212046F8
:100D500003F065FA224F2046394603F0A0F8002838
:100D6000F9D0F1B2204603F062FA1D4EB61C3146AE
:100D7000204603F094F80028F9D00121204603F022
:100D8000DDF82946204603F08AF80028F9D0012230
:100D90002721204603F043FA104D6D1C29462046BA
:100DA00003F07DF80028F9D00C4D3F352946204648
:100DB00003F075F80028F9D00121204603F0C8F8A7
:100DC000204603F029FA05460121204603F05DF88C
:100DD0002846BDE8F08100000054004001000300F7
:100DE000820007002DE9F041234C07460D460026FE
:100DF0000121204603F01DFA0021204603F019FAD4
:100E00000121204603F05AF803F062F80121204640
:100E100003F094F8DFF864802046414603F03FF881
:100E20000028F9D000222721204603F0F8F9DFF846
:100E300050802046414603F032F80028F9D0F9B23C
:100E4000204603F0F4F90E4FBF1C3946204603F04C
:100E500026F80028F9D0E9B2204603F0E8F939462F
:100E6000204603F01CF80028F9D00121204603F0A9
:100E70006FF83046BDE8F0810054004001000300E7
:100E8000820007002DE9F041184D174C174F4435EB
:100E9000174E23E047F6FF702860308800F00F00FF
:100EA000207007EB8000016889B20A0407D5016849
:100EB00040F68F7289B2114001600E4808E00906C1
:100EC0000CD5016848F60F7289B2114001600A48DA
:100ED000217800EB810050F8040C804728683080AE
:100EE0000004D7D4BDE8F081480A0020005C00402F
:100EF0007006002054060020380600202DE9F84F27
:100F0000DFF844A14BF68F7648F6BF774D4D40F69B
:100F10008F794D4C48F60F780AF1440ADFF82CB16E
:100F200030E000BF47F6FF720A600188484A11F0BE
:100F30000F01117030D004EB8100016889B200917B
:100F400009040CD50168134689B201EA0901016060
:100F50004048197800EB810050F8040C8047009855
:100F600000060FD53A48017804EB81010A6892B275
:100F700002EA08020A603849007801EB800050F864
:100F8000040C8047DAF8002051465846ABF80020A0
:100F90001204C7D4BDE8F88F2168C1F301310903F9
:100FA00029802168C1F301114FEA0111698021688C
:100FB00089B2314081F400512160216889B2394001
:100FC00081F0200121600088C00603D5206880B22E
:100FD000010618D5206880B200EA0800206003F0FE
:100FE0003DFC23E0890401D580F400502060206896
:100FF000698880B23840CA0621D4890601D580F0BC
:1010000020002060C6E7010507D5206880B200EA0D
:101010000900206008F0F4F908E00004B2D5206867
:1010200080B200EA0900206005F05EFA2068298895
:1010300080B23040CA04D5D580F48050D2E780F029
:101040001000DAE75A0A0020005C00407006002019
:10105000480A002054060020380600202DE9F041FF
:101060005E4C01200025207060704FF4FB606080B2
:101070000420FFF73FFCA0F52541A5391ED01F2015
:1010800003F024FF4FF6FF7003F058FF54A1A8208F
:1010900003F01AFE58A1C02003F016FE5CA1D82070
:1010A00003F012FE05F07AFE012803D00028F9D0E3
:1010B000BDE8F081BDE8F04109F0F8BA01214FF038
:1010C000C05005F011FC012005F03EFA05F014FEB9
:1010D0000121084605F0D4FD05F00EFE0C20FFF7B7
:1010E00009FC000A20700C20FFF704FC6070082047
:1010F000FFF700FC60801020FFF7FCFBDFF8DC80CE
:10110000A8F110084646A8F800001420FFF7F2FBEB
:10111000708005F07BFD444EB04204D2C8E700BFAA
:1011200001F07AF86D1C05F071FDB0FBF6F0A842F5
:10113000F6D805F06BFDB0FBF6F106FB110005F0EB
:10114000BBFD3AA1C02003F0BFFD6427B5FBF7F655
:1011500006F13000C2B24FF48A71C02003F05AFD8C
:1011600007FB16560A27B6FBF7F505F13000C2B2A9
:101170004FF48271C02003F04DFD07FB1560303045
:10118000C2B2F421C02003F045FD2EA1D82003F007
:101190009BFD00BF05F002FE0128FBD1C02003F03B
:1011A000F1FCD82003F0EEFC2CA1D82003F08CFD3C
:1011B00062782178608800F097FB00BF05F0EEFDB3
:1011C0000128FBD14446B8F800101020FFF798FB27
:1011D0006188BDE8F0411420FFF792BB0C050020A8
:1011E00054696D6520616E64204461746520436FAD
:1011F0006E6669670000000053656C6563743A2091
:1012000050726573732053454C202020000000006D
:1012100041626F72743A20507265737320416E7927
:10122000204B6579000000007F5101002020202024
:101230002020204461797320656C6170736564209F
:1012400000000000202020202020507265737320B1
:1012500053454C202020202000000000507573686A
:101260002053454C20746F20436F6E74696E756512
:1012700000000000074901EB80000168490407D520
:10128000016848F68F7289B2114041F480410160D3
:1012900070470000005C0040074901EB80000168D6
:1012A000490607D5016848F68F7289B2114041F0AE
:1012B0004001016070470000005C0040044901EB00
:1012C0008000016848F68F6289B211400160704762
:1012D000005C004070B5374905462A24486B10F081
:1012E000450FFBD0410702D50324042003E0C007CB
:1012F00004D00124204606F0EDFC59E006F02AFD5A
:10130000A8422BD140F2FF5006F0E4FC002006F08A
:1013100043FD294908424BD0002801DA1C2070BD4A
:10132000410001D5092070BD810001D50A2070BDA2
:10133000C10001D50B2070BD010101D50C2070BD8D
:10134000410101D50D2070BDC10101D50E2070BD38
:10135000010201D50F2070BD410201D5102070BDE2
:10136000810201D5112070BDC10201D5122070BDCE
:10137000010301D5132070BD410301D5142070BDB8
:10138000810301D5152070BDC10301D5162070BDA4
:10139000010401D5172070BD410401D5182070BD8E
:1013A000810401D5192070BD000701D51A2070BD38
:1013B000204670BD0080014008E0FFFD10B50B48DD
:1013C0002A24416B11F0450FFBD0480702D50324B6
:1013D000042003E0C80705D00124204606F07AFC6B
:1013E000204610BD40F2FF50F8E7000000800140A9
:1013F00070B50C46194906462A25486B10F0450F72
:10140000FBD0410702D50324042003E0C00705D028
:101410000124204606F05EFC204670BD06F09AFCD2
:10142000B04213D140F2FF5006F054FC002006F009
:10143000B3FC10F4604F03D0810405D5132070BDB8
:101440004FEA1040208007E0410401D5102070BD14
:10145000000401D50F2070BD284670BD00800140FA
:1014600070477047704770477047704770477047C4
:101470007047704770470000C10002D502490860FC
:10148000704702494860704704040240000002406F
:101490000029016802D041F0010101E021F00101C1
:1014A0000160704701460020CA0001D5034A00E0F0
:1014B000034A12680A4200D001207047000402402B
:1014C0000000024030B5036847F6F07293430C6A9F
:1014D0008A682243D1E904452C4322438C69224384
:1014E000CC6922434C6A22438C6A22431A4302602D
:1014F000CA6842600A6882604968C16030BD000005
:1015000070B505468CB00C461148FFF7B5FF114E7B
:1015100000213046FFF7BCFF0F48CDE90005002051
:10152000A108CDE902018021CDE9040189000691DD
:101530008900CDE907108900CDE9091069463046D8
:10154000FFF7C0FF01213046FFF7A2FF0CB070BDCE
:1015500000F00010440402408080014070B5044651
:101560008CB00D461248FFF787FF124E002130461F
:10157000FFF78EFF1048CDE9000410200290A80864
:10158000039000208021CDE90401890006918900A3
:10159000CDE907108900CDE9091069463046FFF70B
:1015A00091FF01213046FFF773FF0CB070BD0000C2
:1015B00000F0001044040240808001402DE9F05FFB
:1015C000DFF89C90DFF89C804FF0300AD9F80010CB
:1015D00001F11005088A0E7A08B9042E04D0AC88EF
:1015E000A04216D8042615E01F490878012804D027
:1015F00007261021A8F800102CE01C4A00201268D1
:101600001B4B92B203EB42025060A8F800A0087096
:1016100020E00226844200D90446A0B2A968074609
:1016200088478346002002F0BDFA01463A465846F4
:1016300009F014FC3946002007F056FE28880D49B1
:10164000001B2880688820446880A8F800A04FF418
:1016500040500880D9F800000672BDE8F09F0000F5
:101660004C0A00205C0A0020440A0020505C004024
:10167000006000405A0A00202DE9F047234EDFF8B1
:1016800090904FF03008346834F8100FA168B1B171
:1016900008B3A588854200D90546A8B20746884701
:1016A00082462088401B208060882844608000207B
:1016B00002F058FA01463A46504604F035FF2088B9
:1016C00048B114494FF4405008800021084607F003
:1016D0000BFEA9F800802088A188884201D303204E
:1016E00001E020B1052031680872BDE8F08731685B
:1016F00006200872084900200968084A89B202EBEE
:1017000041014860A9F80080EFE700004C0A002082
:101710005C0A00205A0A0020505C00400060004033
:101720002DE9F0415C4C5D4D0926206800272968B1
:101730004278062A05D0AAB1082A4BD00A2A4ED0F0
:1017400069E00278520666D18078012804D0022828
:1017500004D0032804D05EE0C96954E0096A52E06D
:10176000496A50E04288A2BBC288022A53D102795A
:101770007ABB0278530601D1838833B102F07F022D
:10178000012A04D0022A0CD045E045493BE08A6991
:10179000407900219047E0B92068807A0028F4D190
:1017A00039E0417901F00F0001F070020B063D496C
:1017B00051F8201003D5C1F30111090102E0C1F372
:1017C00001310903384B1B78834224D90AB9002917
:1017D000DBD120E0007840061DD1344913E00278C7
:1017E00002F07F02012A16D1827AA2B1428892B910
:1017F000027982B9C288012A0DD18A694079002113
:10180000904740B92A4931B1206847828161002060
:101810008847002006E029682068096940788847E1
:10182000032808D021680A8AA2F57F43FF3B05D12F
:101830000E72BDE8F08120680672FAE7022808D02F
:101840003AB10878000620D5C888824205D90882B6
:1018500013E04FF008000872EBE70ED22868154B32
:1018600090F82C00824201D21F7006E0B2FBF0F427
:1018700000FB142008B901201870286890F82C008B
:101880008882BDE8F041FFF799BE032008720A493B
:1018900000030880CDE700004C0A0020500A002019
:1018A000599F0008005C0040E0060020ED9E000803
:1018B000319F0008440A00205A0A002010B5002079
:1018C00003F00CF805F06AFA0028FBD100F044F9A7
:1018D0004FF6FF7003F043F900F0EAFDBDE8104059
:1018E000012002F0FBBF00002DE9F74F81460D46B5
:1018F000022965D08B48284410F8016C40F21F5033
:1019000003F0E4FA4FF6E07003F018FB854905EBAD
:1019100085000C3101EB80011439002003F0D4F96B
:101920004FF47A77B9FBF7F404F13000C2B25F21CB
:10193000002003F06FF907FB14974FF0640AD046BC
:10194000B7FBF8F404F13000C2B24F21002003F0DD
:1019500061F908FB14744FF00A08B4FBF8F707F1BB
:1019600030023F21002003F055F908FB17423032C6
:101970002F21002003F04EF929464846029A09F02B
:1019800067FB4FF6FF7B584603F0D8FA66A1182094
:1019900003F09AF9634C203C60680A2818D3474644
:1019A000B0FBF7F03030C2B2DF21182003F032F97B
:1019B0006068B0FBF7F107FB11023032CF210DE078
:1019C00003F0BAF808B11E2698E75648467895E71E
:1019D000B0FBF8F208FB12023032DF21182003F0CE
:1019E00019F9E068642820D35746B0FBF7F030308F
:1019F000C2B22F21182003F00DF9E068B0FBF7F117
:101A000007FB1101B1FBF8F230321F21182003F05F
:101A100001F9E068B0FBF7F107FB1101B1FBF8F247
:101A200008FB121230320F2118E00A2810D3474663
:101A3000B0FBF7F03030C2B22F21182003F0EAF8E3
:101A4000E068B0FBF7F107FB110230321F2105E01F
:101A5000B0FBF8F208FB120230322F21182003F0FD
:101A6000D9F84FF4784003F031FA5F46584603F056
:101A700065FA33A1302003F027F9384603F026FA3F
:101A800040F21F5003F05AFA01222946484609F055
:101A9000DFFAA0684825A146A0EB800140F23F1A7A
:101AA0000AEB011401272BE00298874203D1A9F821
:101AB0000040A9F802500A2F04D3B7FBF8F03030E9
:101AC000C2B200E02022A1B2E8B203F0A3F8B7FB53
:101AD000F8F108FB1172103CE8B23032A1B2834633
:101AE00003F098F81F2C02D25446183507E0A4F1F1
:101AF000100081B22022584603F08CF8203C7F1C55
:101B0000B742D1D34FF4784003F018FAB9F8020085
:101B1000B9F8001003B02023BDE8F04F1822C0B27E
:101B200003F044B91C050020205745454B202020D8
:101B30002020444159204E3A20202020000000005F
:101B40004D6F2054752057652054682046722053ED
:101B5000612053750000000010B54FF6FF74204659
:101B600002F0FDFF1F2003F0B1F9204603F0E6F973
:101B70000420FEF7BFFEA0F52541A5391AD01CA10F
:101B8000A82003F0A1F820A1C02003F09DF824A113
:101B9000D82003F099F800BF05F000F9012802D021
:101BA0000028F9D010BD08F081FD2046BDE81040A6
:101BB00002F0D5BF204C627821786088FFF794FE50
:101BC00000F03CF861880820FEF79AFE20786178E2
:101BD00041EA00210C20FEF793FE103C10202188E2
:101BE000FEF78EFE6188BDE810401420FEF788BE27
:101BF00054696D6520616E64204461746520436F93
:101C00006E6669670000000053656C6563743A2076
:101C100050726573732053454C2020200000000053
:101C200041626F72743A20507265737320416E790D
:101C3000204B6579000000000C05002010B50AA1BA
:101C4000D82003F041F805F0CDFA0DA1D82003F01B
:101C50003BF805F085FA10A1D82003F035F8BDE86F
:101C6000104005F08FB900002055502F444F574EBB
:101C70003A205365742059656172202000000000ED
:101C80002055502F444F574E3A20536574204D6FC6
:101C90006E74682000000000536574204461792D43
:101CA0002053454C20546F20657869740000000073
:101CB0002DE9F84F002002F011FE4FF6FF74204688
:101CC00002F04DFF05F06AF80028FBD11F2003F059
:101CD000FDF8204603F032F90420FEF70BFEA0F5D4
:101CE0002540A53819D0F6A1A82002F0EDFFFAA1F1
:101CF000C02002F0E9FFFEA1D82002F0E5FF00BFFE
:101D000005F04CF8012803D00028F9D0204653E014
:101D100008F0CCFC204602F022FF4FF6FF7002F0E4
:101D20001EFFF9A1D82002F0CFFFFD4C6278217888
:101D30006088FFF7D9FD207804F10F05022806D14D
:101D4000608802F0F9FE08B11D2702E02078475DA7
:101D50007F1EDFF8CCA340F23F11AAF1100ADAF897
:101D60000820A2EB820001EB00100090C2F10700F6
:101D7000391A0722B1FBF2F002FB101129B300EB74
:101D80004002602000EBC209A1EB810040F26F111C
:101D900001EB0010A346667880460A2404F0FEFF9B
:101DA000022819D003287DD004287CD005287BD0B8
:101DB0000128F3D14FF6FF7002F0D1FE00F078FB5E
:101DC000BDE8F84F012002F089BD00EB400048213A
:101DD00001EBC0091F20DDE74FF6FF7003F0AEF8FE
:101DE000BAF80200202318225546BAF80010C0B2F3
:101DF00002F0DCFFBE4205D1482068800098002632
:101E00003030288028881F2805D140F26F102880A4
:101E10006888183068802888303828804FF47840E7
:101E200003F08CF86888202318222988C0B202F0B9
:101E3000BDFF761C9BF80010BBF80200F2B209F05F
:101E400007F940F21F5003F041F84FF6FF7003F01E
:101E500075F8B4A1182002F037FF68680A280FD37C
:101E6000B0FBF4F03030C2B2DF21182002F0D2FE15
:101E70006868B0FBF4F104FB11023032CF2105E0B9
:101E8000B0FBF4F104FB11023032DF21182002F024
:101E9000C1FEE868642820D36421B0FBF1F0303043
:101EA000C2B202E031E0C8E084E12F21182002F044
:101EB000B1FEE9686420B1FBF0F200FB1210B0FB48
:101EC000F4F230321F21182002F0A4FEE9686420E9
:101ED000B1FBF0F200FB121198E00A287ED3B0FBB0
:101EE000F4F03030C2B22F21182002F093FEE968DE
:101EF000B1FBF4F004FB10129CE0182002F08AFE03
:101F00004FF6FF7002F0E2FF48E74FF6FF7003F074
:101F100015F8BAF80200202318225546BAF8001026
:101F2000C0B202F043FF012E05D1A5F80290A8F13E
:101F300030007E1C28802988A1F580703F3805D1AB
:101F40004FF6EF702880688818386880288830300D
:101F500028804FF4784002F0F1FF6888202318228F
:101F60002988C0B202F022FF761E9BF80010BBF851
:101F70000200F2B209F06CF840F21F5002F0A6FF26
:101F80004FF6FF7002F0DAFF66A1182002F09CFE07
:101F900068680A280FD3B0FBF4F03030C2B2DF21FA
:101FA000182002F037FE6868B0FBF4F104FB110260
:101FB0003032CF2105E0B0FBF4F104FB11023032E6
:101FC000DF21182002F026FEE868642823D3AA4601
:101FD0006425B0FBF5F03030C2B200E06EE02F2196
:101FE000182002F017FEDAF80C00B0FBF5F105FB43
:101FF0001100B0FBF4F230321F21182002F00AFE6B
:10200000DAF80C00B0FBF5F105FB1101B1FBF4F0BF
:1020100004FB1012CBE00A2850D3B0FBF4F03030B0
:10202000C2B22F21182002F0F5FDE868B0FBF4F1F0
:1020300004FB110230321F215FE74FF6FF7002F000
:102040007DFFBAF80200202318225546BAF8001086
:10205000C0B202F0ABFE012E07D0082E0BD2012633
:10206000482068800098288009E0A5F80290A5F82B
:1020700000803E4603E0688818386880F61F4FF4F9
:10208000784002F05BFF6888202318222988C0B2BC
:1020900002F08CFE9BF80010BBF80200F2B208F0D0
:1020A000D7FF40F21F5002F011FF4FF6FF7002F011
:1020B00045FF1CA1182002F007FE3FE0A4E000004D
:1020C00054696D6520616E64204461746520436FBE
:1020D0006E6669670000000053656C6563743A20A2
:1020E00050726573732053454C202020000000007F
:1020F00041626F72743A20507265737320416E7939
:10210000204B65790000000020546F2045786974E9
:102110002050726573732053454C2020000000004E
:102120000C050020205745454B202020202044410D
:1021300059204E3A202020200000000068680A281C
:102140005BD3B0FBF4F03030C2B2DF21182002F0D4
:1021500061FD6868B0FBF4F104FB11023032CF215D
:10216000182002F057FDE8686428FFF454AF64219A
:10217000B0FBF1F03030C2B22F21182002F04AFD3E
:10218000E9686420B1FBF0F200FB1210B0FBF4F23E
:1021900030321F21182002F03DFDE9686420B1FBB8
:1021A000F0F200FB1210B0FBF4F104FB110230322C
:1021B0000F21A2E64FF6FF7002F0C0FEBAF802004F
:1021C000202318225546BAF80010C0B202F0EEFDE6
:1021D000BE4205D14820688000982880012603E08F
:1021E000688818306880F61DBE427FF63DAFA5F8BE
:1021F00002903E46A5F8008041E7B0FBF4F104FBF5
:1022000011023032DF21ABE7B0FBF4F104FB110225
:1022100030322F2171E6000070B5294C012520468F
:10222000217842784E1C531C4088DBB2F6B201295B
:1022300016D0032914D0052912D0072910D0082957
:102240000ED00A290CD00C290AD0042913D0062953
:1022500011D009290FD00B290DD002290ED021E071
:102260001F2A0DD30C2901D026701AE02570657045
:10227000401C608016E01E2A02D3F5E71C2A01D21A
:1022800063700FE009D102F057FC18B16078401C70
:10229000607007E02078401C02E01D2A02D1032074
:1022A0002070657061880820FEF72AFB207861782D
:1022B000BDE8704041EA00210C20FEF721BB000080
:1022C0000C0500207047000004494A69904201D380
:1022D00004F0D0BF4A69101A486170470C0700200B
:1022E00006498869002807D0C869401EC86103D123
:1022F0004862486A8869C861704700000C0700207E
:1023000003484168002902D04168491E4160704776
:102310000C00002010B5084C6060012007F010FF91
:1023200060680028FCD1801E07F00AFFBDE810405D
:10233000002007F005BF00000C00002070B5054626
:102340000024012007F0FCFE084E756003E000BF8A
:1023500004F024FD0446706828B1022C03D0032C3D
:1023600001D0012CF4D1204670BD00000C000020EB
:1023700070B504F0FBFA4FF48035284604F094FB66
:1023800004F000FC2F4C20702078012822D110206E
:1023900000F064FE022000F06DFE002004F07AFBE5
:1023A000002004F0B7FBA81104F0AAFB4FF4E011E1
:1023B000284604F0BFFB012004F0B6FB392004F0EE
:1023C0003FFB0028FAD0022004F0CCFB04F05AFBBB
:1023D0000828FBD1012140F2FD1004F09DFA0121F3
:1023E000C80204F099FA01F023FA02F095FA07F016
:1023F00099FE02F059FF02F0A5FF06F006FC4FF629
:10240000FF75284602F0ABFB207810B91F2003F0BF
:10241000C3FF06F047FE284602F0A1FBFEF71EFEB2
:10242000012002F021FF02F08DFF1F2002F04EFD7F
:10243000284602F083FD03F0B7FBBDE8704007F0CB
:1024400013B800000C0000202DE9F05F4FF0000AE7
:10245000DFF858B0554662274FF491744FF48079F5
:10246000002607F0FF080121484604F031FA402316
:102470001A46A1B2404602F03BFD0021484604F056
:1024800027FA5BF8250002F0D7FC413C6D1C0A2DB1
:102490000AD0761C042EE6D341370AF1010A4FF424
:1024A0009174BAF1030FDBD3BDE8F09F44B5000887
:1024B0002DE9F04100251F2002F008FD4FF6FF77BF
:1024C000384602F03BFD384602F049FB184CA06943
:1024D0000168002002F0F8FB1826384602F0F6FCEE
:1024E0001F2002F02BFD08E0406800EB051001689A
:1024F000F0B202F0E9FB6D1C1836A069017AA9421E
:10250000F2D84FF4FC6002F0E1FC384602F016FD10
:10251000A0694168207801EB001121610968BDE8DC
:10252000F041401C00EB4000C006000E02F0CCBBA6
:102530001C00002070B54FF6FF75284602F0C6FC5F
:102540001F2002F0FBFC1A4CA0692278406800EBC7
:1025500002102061521C016802EB4200C006000E0E
:1025600002F0B2FBA069017A2078491E814201DCA9
:10257000002000E0401C20704FF4FC6002F0A6FC3C
:10258000284602F0DBFCA0694168207801EB0011CD
:10259000401C00EB40002161C0060968000E02F0FB
:1025A00093FB034962780C312078885470BD000099
:1025B0001C00002003F0B6B803F0DEB8704710B579
:1025C0004FF40044204600F057F8002806D008F0E9
:1025D00007FC2046BDE8104000F048B810BD704729
:1025E000704710B5082000F047F8002806D0FFF724
:1025F000A1FFBDE81040082000F038B810BD7047BA
:1026000010B501F03FFB4FF4807420B101F03AFBAC
:10261000012811D01FE0204600F02EF810B120460E
:1026200000F024F8802000F027F8A0B106F0CCFEDE
:10263000802000F01BF80EE0802000F01DF850B163
:10264000802000F013F806F0B9FE012005F06AF9C9
:10265000002005F073F9204600F00EF8002804D0A1
:102660002046BDE8104000F001B810BD01490860E7
:102670007047000014040140064A01460020126819
:10268000044B0A4014331B680B4202D0002A00D0CE
:10269000012070470004014030B583791949026870
:1026A00053B30B6893430B600A1D13680468A3437C
:1026B000136002790A441368046823431360114AC3
:1026C000083213680468A3431360131D1C6805686F
:1026D000AC431C604479102C05D021440A68006882
:1026E00002430A6030BD1168046821431160196813
:1026F00000680143196030BD0079084401689143C6
:10270000016030BD000401400021016001710C2214
:10271000427181717047000010B54FF6FF7420467A
:1027200002F01DFA1F2002F0D1FB204602F006FC49
:10273000002002F0D3F800BF04F030FB0028FBD1EA
:102740000420FEF7D7F8A0F52541A5392ED038A1F1
:10275000182002F0B9FA3CA1302002F0B5FA40A1ED
:10276000482002F0B1FA44A1602002F0ADFA48A17D
:10277000782002F0A9FA4CA1902002F0A5FA50A10D
:10278000A82002F0A1FA54A1C02002F09DFA00BFD7
:1027900004F004FB0028FBD0204602F0E0F9FFF72C
:1027A00087FEBDE81040012002F098B850A16020DB
:1027B00002F08AFA54A1782002F086FA58A19020FB
:1027C00002F082FA5CA1A82002F07EFA60A1C0208B
:1027D00002F07AFA04F0E2FA0128FBD104F0DEFA02
:1027E0000028FBD1602002F0CDF9782002F0CAF970
:1027F000902002F0C7F9D82002F0C4F904F006FADC
:10280000044681B21820FEF77BF8210C1C20FEF74D
:1028100077F8FDF711FF54A1A82002F055FA58A14E
:10282000C02002F051FABDE8104003F093BE000052
:1028300054696D6520616E64204461746520617225
:1028400065202020000000006E6F7420636F6E66AC
:102850006967757265642C2020202020000000002C
:10286000706C6561736520676F20746F2074686594
:10287000202020200000000063616C656E6461729E
:10288000206D656E7520616E6420202000000000C0
:10289000736574207468652074696D6520616E6469
:1028A00020202020000000006461746520706172A7
:1028B000616D65746572732E202020200000000079
:1028C0005072657373204A6F79537469636B207417
:1028D0006F20202000000000636F6E74696E7565C4
:1028E0002E2E2E202020202020202020000000003E
:1028F0005479706963616C2063757272656E7420BF
:102900002020202000000000636F6E73756D7074CE
:10291000696F6E20696E20202020202000000000BA
:102920005354414E444259206D6F64652077697459
:102930006820202000000000525443204F4E2069A0
:10294000733A20332E3620754120202000000000ED
:10295000506573732053454C20746F20636F6E7401
:10296000696E756500000000204D435520696E209A
:102970005354414E444259204D6F6465000000009D
:10298000205761697420466F722052544320416C75
:1029900061726D200000000010B54FF6FF742046F4
:1029A00002F0DDF81F2002F091FA204602F0C6FA8C
:1029B000002001F093FF00BF04F0F0F90028FBD1E4
:1029C00019A1602002F080F91DA1782002F07CF9A5
:1029D00021A1902002F078F925A1A82002F074F935
:1029E00029A1C02002F070F904F0D8F90128FBD128
:1029F00004F0D4F90028FBD1602002F0C3F878205D
:102A000002F0C0F8902002F0BDF8D82002F0BAF829
:102A100023A1A82002F058F927A1C02002F054F900
:102A2000BDE8104003F096BD5479706963616C2075
:102A300063757272656E74202020202000000000F3
:102A4000636F6E73756D7074696F6E20696E202090
:102A500020202020000000005354414E44425920C1
:102A60006D6F646520776974682020200000000085
:102A7000525443204F4E2069733A20332E3620752E
:102A80004120202000000000506573732053454C06
:102A900020746F20636F6E74696E756500000000AE
:102AA000204D435520696E205354414E44425920D5
:102AB0004D6F646500000000546F206578697420D4
:102AC00070726573732057616B657570000000004C
:102AD0002DE9FE4F594E002535604FF6FF7A5446DA
:102AE000504602F03CF81F2002F0F0F9204602F0B8
:102AF00025FA002001F0F2FE04F050F90028FBD185
:102B00008DF804500C274FF480788DF8057001245F
:102B1000CDF800808DF806406846FFF7BDFD4FF008
:102B200017098DF808908DF809408DF80A408DF846
:102B30000B4002A803F0E4FB41A1602002F0C4F8BE
:102B400045A1782002F0C0F849A1902002F0BCF81D
:102B50004DA1A82002F0B8F851A1C02002F0B4F8AD
:102B600004F01CF90128FBD104F018F90028FBD16E
:102B7000A82002F007F8C02002F004F8D82002F0E4
:102B800001F84DA1602002F09FF851A1782002F0D9
:102B90009BF855A1902002F097F8022004F016F857
:102BA00000F072FF5649042048600121084603F0F6
:102BB000E5FC00F02FFF8DF804508DF80570CDF87E
:102BC00000808DF806506846FFF766FD8DF8089086
:102BD00002208DF809008DF80A408DF80B4002A8FC
:102BE00003F08EFB06F0BEFA04F0D8F80028FBD103
:102BF000306844A100284FF0600003D002F064F870
:102C000046A102E002F060F84AA1782002F05CF8E8
:102C10004EA1902002F058F852A1A82002F054F8DA
:102C200004F0BCF80028FBD0504601F098FFFFF7F5
:102C30003FFC012001F052FEBDE8FE8F600800203D
:102C40005479706963616C2063757272656E74206B
:102C50002020202000000000636F6E73756D70747B
:102C6000696F6E20696E2053544F502000000000A1
:102C70006D6F64652077697468206C6F7720706F62
:102C80007765722000000000726567756C61746F73
:102C9000722069733A20323520754120000000000F
:102CA000506573732053454C20746F20636F6E74AE
:102CB000696E75650000000020204D435520696E47
:102CC0002053544F50204D6F6465202000000000B9
:102CD000546F2065786974207072657373204B653A
:102CE00079202020000000007075736820627574E0
:102CF000746F6E2020202020202020200000000063
:102D00000020014020202020202053544F50204DEF
:102D10006F646520202020200000000057616B6553
:102D20002D55702062792052544320416C61726DA0
:102D30000000000057616B655570206279204B657B
:102D40007920427574746F6E0000000050726573D4
:102D500073204A6F79537469636B20746F2020204D
:102D600000000000636F6E74696E75652E2E2E2054
:102D700020202020202020200000000070B54FF6E9
:102D8000FF74204601F0EBFE1F2002F09FF8204662
:102D900002F0D4F8002001F0A1FD00BF03F0FEFF17
:102DA0000028FBD10420FDF7A5FDA0F52541A5399C
:102DB00026D043A1182001F087FF47A1302001F061
:102DC00083FF4BA1482001F07FFF4FA1602001F05D
:102DD0007BFF53A1782001F077FF57A1902001F0ED
:102DE00073FF5BA1A82001F06FFF5FA1C02001F07D
:102DF0006BFF00BF03F0D2FF0028FBD0204656E057
:102E00005FA1602001F060FF63A1782001F05CFF0A
:102E100067A1902001F058FF6BA1A82001F054FF9A
:102E20006FA1C02001F050FF03F0B8FF0128FBD1D3
:102E300003F0B4FF0028FBD12546204601F08FFEA9
:102E400003F0E4FE044681B21820FDF759FD210C81
:102E50001C20FDF755FDFDF7EFFBC02001F092FEB1
:102E600065A1902001F030FF69A1A82001F02CFF9E
:102E700000F00AFE0121084603F080FB00F0CAFDC5
:102E800006F070F968A1602001F01EFF6CA17820A7
:102E900001F01AFF2EA1902001F016FF32A1A82008
:102EA00001F012FF03F07AFF0028FBD0284601F062
:102EB00056FEFFF7FDFABDE87040012001F00EBD9F
:102EC00054696D6520616E6420446174652061728F
:102ED00065202020000000006E6F7420636F6E6616
:102EE0006967757265642C20202020200000000096
:102EF000706C6561736520676F20746F20746865FE
:102F0000202020200000000063616C656E64617207
:102F1000206D656E7520616E642020200000000029
:102F2000736574207468652074696D6520616E64D2
:102F30002020202000000000646174652070617210
:102F4000616D65746572732E2020202000000000E2
:102F50005072657373204A6F79537469636B207480
:102F60006F20202000000000636F6E74696E75652D
:102F70002E2E2E20202020202020202000000000A7
:102F80005479706963616C2063757272656E742028
:102F90002020202000000000636F6E73756D707438
:102FA000696F6E20696E2053544F5020000000005E
:102FB0006D6F64652077697468206C6F7720706F1F
:102FC0007765722000000000726567756C61746F30
:102FD000722069733A2032352075412000000000CC
:102FE000506573732053454C20746F20636F6E746B
:102FF000696E75650000000020204D435520696E04
:103000002053544F50204D6F646520200000000075
:10301000205761697420466F722052544320416CDE
:1030200061726D20000000002020202020205354D9
:103030004F50204D6F6465202020202000000000AC
:1030400057616B652D5570206279205254432041A1
:103050006C61726D000000007047000004490A684E
:1030600022F010020A600A6802430A6070470000FA
:103070000020024004490A6802F038020A600A6827
:1030800002430A60704700000020024070470000C1
:103090004FF0204251B1102804D052F8800F40F078
:1030A000040009E0106E40F0040009E00549102812
:1030B00004D052F8800F084010607047106E08402E
:1030C00010667047FBFF0F0030B5D0E901121143C5
:1030D000D0E903231A43114342691143826941EA4B
:1030E0004221C26941EA4231026A41F00804D2E950
:1030F000001341EA03219368D2681B0443EA026289
:10310000436A1143D3E9002542EA05229D68DB6842
:103110002D0445EA03631A4303684FF02040102B47
:1031200004D040F8804F8160C26030BD0466816683
:10313000C26630BD82884FF48071521C92B2828088
:10314000202A10D10022828043885B1C9BB24380DE
:10315000B3F5806F07D142800288521C92B2028080
:10316000042A00D14900084670470000094A60233C
:103170001370030C03EB802089B201EB4010064969
:103180000870030A0B70000C0870D020107000F05B
:1031900005B80000000001700000027000B54FF09B
:1031A000807300F0F5F802E000F0F2F85B1E4028B2
:1031B00002D0002BF8D101E0002B01D14FF4806048
:1031C00000BD000070B590B001214FF4F07003F025
:1031D000A3FB4DF6B300ADF8280003258DF82A5067
:1031E00018201F4E8DF82B000AA9304600F0B6FBC0
:1031F0004FF4F060ADF828000AA91A4800F0AEFBC1
:103200004024ADF828408DF82A5048208DF82B0036
:103210000AA9304600F0A2FBADF828400AA91248DE
:1032200000F09CFB0120CDE90B050221CDE90D103A
:103230001020CDE9000100200904CDE90204CDE908
:103240000410069007900BA8089009906846FFF7B5
:103250003BFF01211020FFF71BFF10B070BD0000E5
:10326000001401400018014000200140084A90214C
:103270001170084A002111704FF0E0410968017097
:103280000A0A42700A0C8270090EC1707047000071
:1032900000000170000002702DE9FF4300254FF48B
:1032A000807881461E462F46444626E01748002176
:1032B000017017480170BDF80610BDF8042001EB3D
:1032C0008221BDF8082002EB411101700A0A027048
:1032D000090C01704FF4007000EB47204FF0E04103
:1032E00003E00B7809F805306D1C8542F9D37F1C8B
:1032F000761E01A8FFF71EFF04460EB14445D5D047
:10330000FFF74CFF04B02043BDE8F08300000170DC
:10331000000002702DE9FF4300274FF480788146BA
:103320001E463D46444626E017495020087017487F
:1033300000210170BDF80610BDF8042001EB8221C8
:10334000BDF8082002EB411101700A0A0270090C55
:103350000170102000EB07104FF0E04103E00B7804
:1033600009F805306D1C8542F9D37F1C761E01A833
:10337000FFF7E0FE04460EB14445D5D0FFF70EFF3F
:1033800004B02043BDE8F08300000170000002702B
:10339000064A00207021117009060978CA0701D079
:1033A000012070474906FCD540207047000001709D
:1033B0002DE9FF4F00264FF4807882461F46B14624
:1033C00045464024DFF87CB032E0002059468BF8B7
:1033D000000080228BF800201B4A1070BDF8060008
:1033E000BDF8043000EB8320BDF8083003EB40103B
:1033F0001070030A1370000C10704FF4007202EB8F
:1034000049204FF0E04203E01AF806301370761CB2
:103410008642F9D310200870FFF7C0FE044640280A
:1034200006D109F101097F1E01A8FFF783FE0546B9
:103430001FB1454501D1402CC7D004B044EA050076
:10344000BDE8F08F00000170000002702DE9FF4F11
:1034500000264FF4807882461F46B14645464024F8
:10346000DFF87CB031E0502059468BF80000802016
:103470008BF800001B4A00201070BDF80600BDF854
:10348000043000EB8320BDF8083003EB40101070CF
:10349000030A1370000C1070102202EB09104FF099
:1034A000E04303E01AF806401C70761C8642F9D30C
:1034B0000A70FFF773FE0446402806D109F101099E
:1034C0007F1E01A8FFF736FE05461FB1454501D115
:1034D000402CC8D004B044EA0500BDE8F08F0000DD
:1034E00000000170000002704FF0204202EB8000EB
:1034F0000029016802D041F0010101E0014A1140B8
:1035000001607047FEFF0F0030B5D0E90112114392
:10351000D0E903231A4311434269036811438269C6
:103520001143C2691143026A1143426A1143826A1C
:103530001143C26A11434FF0204242F823108168C0
:10354000082906D1016802EB81010B6843F04003B2
:103550000B60016BD1E9003443EA04138C68CD6839
:10356000240244EA054423430C6943EA04534C69AA
:10357000896943EA04630B43016802EB81014B60F4
:10358000816AB1F5804F07D000686FF0704102EB9F
:103590008000C0F8041130BD416B0068D1E90034EF
:1035A00043EA04138C680D69240244EA055423435A
:1035B0004C69896943EA046302EB80000B43C0F85D
:1035C000043130BD70B596B001214FF4F07003F0B6
:1035D000A3F94CF20370ADF8540018208DF8570091
:1035E0000320324C8DF8560015A9204600F0B6F99C
:1035F0004FF680702E4DADF8540015A9284600F006
:10360000ADF94FF23F00ADF8540015A9294800F07C
:10361000A5F93F20284EADF8540015A9304600F01A
:103620009DF94FF46050ADF8540015A9204600F004
:1036300095F97820ADF8540015A9284600F08EF9C8
:103640003020ADF8540015A9204600F087F9601528
:10365000ADF8540015A9304600F080F905200E9011
:1036600000200721CDE90F0111904FF080511290F9
:10367000CDE913010221CDE90010082102911021AA
:10368000CDE90310059009020690CDE907010990E4
:103690000A900B900EA80C900D906846FFF734FF2F
:1036A00001210220FFF720FF16B070BD0014014079
:1036B00000180140001C0140002001400949AA22D5
:1036C0000A80094B55221A8090220A804FF0C84187
:1036D0000A8802804A8842808A8B8280C98BC18096
:1036E00070470000AA0A0064540500644FF0C84106
:1036F000F0200880002070472DE9FC470026484C48
:1037000000964FF0080A019610204FF04008C4F8C8
:1037100000A0C4E901084FF48069C4E903690F46B9
:103720003546204604F068FB1020FDF7D3FD2A281B
:1037300040D13C488068000420603720C4E901087B
:10374000C4E90359204604F057FB3720FDF7C2FDBA
:103750002A282FD104F114003349C0E9001A30217E
:1037600081600221C0E903150121416104F0CAFA18
:103770003320C4E90050C4F81090C4E90285204603
:1037800004F03AFB3320FDF7A5FD04462A2811D1A9
:10379000264D4FF4001AE94640F22A68686B10EA99
:1037A000080F09D0082004F0DBFA80B1082004F0EB
:1037B00091FA0420BDE8FC87504604F0D1FA0028B5
:1037C000ECD004F013FB49F82600761CE6E7022053
:1037D00004F0C6FA20B1022004F07CFA0220E9E7E6
:1037E000202004F0BDFA20B1202004F073FA062056
:1037F000E0E74FF40075284604F0B2FA20B12846FD
:1038000004F068FA0720D5E740F2FF5004F062FAAE
:10381000009800BA7860019800BA38602046C9E77D
:1038200074150020AC090020FFFF0F00008001404C
:1038300038B54EF28010ADF8000004248DF8034036
:103840006946124800F08AF80820ADF800008DF8AB
:10385000034069460E4800F081F80D21062000F073
:1038600069F80E21062000F065F80321084600F0F3
:1038700061F80F21062000F05DF80721062000F016
:1038800059F80821062000F055F838BD0020014005
:103890000014014010B5254C2315021B5900A0420D
:1038A0002ED00DDC224A80181CD0984221D08842AC
:1038B0003BD10121102003F03BF8002110200DE046
:1038C0009A4224D08A4229D0B2F5406F2DD10121ED
:1038D0000C02204603F02CF800212046BDE81040E1
:1038E00003F026B80121042003F022F8002104206F
:1038F000F4E70121082003F01BF800210820EDE780
:103900000121202003F014F800212020E6E7012106
:10391000402003F00DF800214020DFE70121802046
:1039200003F006F800218020D8E710BD0014014004
:1039300000F8FEBF10B58A0721F003040649130FF3
:1039400021440F228C689A4094438C608A68984086
:1039500002438A6010BD0000000001402DE9F041E3
:10396000CB78002503F00F02DB0601D58B781A43D4
:103970000B884FF00F0813F0FF0F4FF0010C1CD015
:10398000D0F800400E880CFA05F31E409E4210D17C
:10399000AF0008FA07F624EA060602FA07F43443F1
:1039A000CE78282E02D0482E02D002E0436100E0FB
:1039B00003616D1C082DE5D304600B88FF2B1DD916
:1039C0004468002505F108060CFA06F30E881E402F
:1039D0009E420FD1AF0008FA07F624EA060602FA63
:1039E00007F43443CE78282E00D14361CE78482E98
:1039F00000D103616D1C082DE4D34460BDE8F08163
:103A00000246002092680A4200D0012070474161BE
:103A1000704700001448154A41681160121D816802
:103A20001160134AC1681160121D016911601149CA
:103A300042690A6082694A600F4AC1691160121DB9
:103A4000016A11600D4A416A1160121D816A11609C
:103A50000B4AC16A1160121D016B11600949426B6A
:103A60000A60806B486070476008002000080140D1
:103A7000000C0140001001400014014000180140FA
:103A8000001C0140002001402DE9F843294A11683B
:103A900029484160111D0968284E81603168C16064
:103AA000311D0968264C0161216841616168254F1B
:103AB00081613968C161391D0968DFF88C80016254
:103AC000D8F80010416208F104010968DFF87C9021
:103AD0008162D9F80010C16209F1040109681C4D26
:103AE000016329684163696881634FF6FF70ADF82F
:103AF000000000208DF8030069461046FFF72EFFF6
:103B000069463046FFF72AFF69462046FFF726FF41
:103B100069463846FFF722FF69464046FFF71EFF19
:103B200069464846FFF71AFF69462846FFF716FF21
:103B3000BDE8F8830008014060080020000C014047
:103B4000001001400014014000180140001C014019
:103B500000200140016170470AB101617047416175
:103B6000704700000549096889B201EBC0000449AB
:103B700001EB4000806880B270470000505C00405C
:103B8000006000400549096889B201EBC0000449A2
:103B900001EB4000C068C0F309007047505C004072
:103BA000006000400449096889B201EBC000034984
:103BB00051F8100080B27047505C00400060004037
:103BC00001484069704700000C0700200148C068A8
:103BD000704700000C0700200148406A7047000051
:103BE0000C0700200148806A704700000C07002085
:103BF00001480078704700000C0700200148006968
:103C0000704700000C070020014800787047000052
:103C10000C00002001488068704700000C00002064
:103C200008B104487047044901200968088200204F
:103C300070470000740600204C0A00200F4810B5A1
:103C40000168001D0268001D0368002915D00C489A
:103C50000C0A817004710C0C8471090E017282725D
:103C6000110A0173110C8173110E01748374190A06
:103C70000175190C8175190E017610BDE8F7FF1F4B
:103C80001C06002001488068704700001C000020CE
:103C9000FEE7000070B5002000F020FE03F07EF883
:103CA0000028FBD101210C02204602F011FE4FF446
:103CB000A073F022591EEF2001F01AF92A4801F0F2
:103CC000BBF800BF03F06AF80028FBD103F066F8E8
:103CD0000028FBD00121204602F0FAFD1F2001F050
:103CE000F5F84FF6FF75284601F028F91FA10020CE
:103CF00000F0EAFF23A1182000F0E6FF27A1302002
:103D000000F0E2FF2BA1482000F0DEFF2FA1602091
:103D100000F0DAFF33A1782000F0D6FF37A1902021
:103D200000F0D2FF3BA1A82000F0CEFF3FA1C020B1
:103D300000F0CAFF43A1D82000F0C6FF00212046B2
:103D400002F0C6FD03F02AF80028FBD0012120462E
:103D500002F0BEFD284600F002FFFEF7A9FBBDE819
:103D60007040012000F0BABD3C54FA6455502C203C
:103D7000444F574E2C20524947485420616E6420CE
:103D8000000000004C45465420707573682D627524
:103D900074746F6E732020200000000070657266DE
:103DA0006F726D2063697263756C617220202020D0
:103DB000000000006E617669676174696F6E20694A
:103DC0006E20746865202020000000006D61696E1F
:103DD000206D656E752C2063757272656E7420207F
:103DE000000000006D656E75206974656D732E208E
:103DF00053454C202020202000000000707573687F
:103E00002D627574746F6E2073656C6563747320B6
:103E1000000000007468652063757272656E74201E
:103E20006974656D2E20555000000000616E64209D
:103E3000444F574E20706572666F726D20202020AF
:103E400000000000766572746963616C206E6176B3
:103E500069676174696F6E2E0000000000F0F00069
:103E60000009092801D8303000E03730C0B270476F
:103E700000F00F00092801D8303000E03730C0B220
:103E8000704770477047704770470029018802D01B
:103E900041F4806101E021F48061018070470246B5
:103EA0000020938A128B43EA024323F07F428A4226
:103EB00000D101207047C9438182704700290188E1
:103EC00002D041F0010101E021F0010101807047C1
:103ED0001FB50020ADF800004BF6FF70ADF80200F2
:103EE0003320ADF804004FF48060ADF80600000107
:103EF000ADF80800034803906946034800F042F813
:103F00001FBD0000400D0300005400400A4910B5D9
:103F100040180DD0B0F5806F0DD101218C052046E1
:103F200002F0EEFC2046BDE81040002102F0E8BCA3
:103F300001214C05F3E710BD00ACFFBF002901884B
:103F400002D041F4807101E021F48071018070475A
:103F50000029018802D041F4007101E021F40071D0
:103F60000180704700220B0F21F07F4101D01430F7
:103F700001E0090C18300068084200D00122104608
:103F80007047000070B50446808886B00D4620F06A
:103F90003F06684602F008FD26490298B0FBF1F1A1
:103FA00089B20E43A680228822F001022280224B91
:103FB000EA689A421CD85200B0FBF2F080B20428A2
:103FC00000D20420491C2184A083208840F00100F5
:103FD000208021884FF6F53001402888EA88104378
:103FE000084320802889A9880843208106B070BD35
:103FF0006B88A3F53F46FF3E05D102EB4202B0FBC2
:10400000F2F080B208E002EBC20303EB0212B0FB55
:10401000F2F080B240F48040020501D140F001008E
:104020004FF4967251434FF47A72B1FBF2F140F4BF
:104030000040C7E740420F00A086010010B586B0DF
:104040000121092002F068FC0121480502F04CFC26
:10405000C020ADF8100003208DF812001C20194C70
:104060008DF8130004A92046FFF778FC2020ADF856
:10407000100001208DF8120048208DF8130004A9CB
:104080002046FFF76BFC104C2046FFF73FFF002156
:10409000ADF800104BF6FF70ADF80200ADF804105B
:1040A0002015ADF806000001ADF8080007480390A0
:1040B00069462046FFF766FF01212046FFF7FEFE16
:1040C00006B010BD000C014000540040400D03003C
:1040D0002DE9F041184E194C164D31462046FFF798
:1040E000EAFE01212046FFF7D0FE01212046FFF71E
:1040F00025FF134F20463946FFF7D1FE0028F9D09F
:1041000000229021204600F08AF80E4F00E06D1E3C
:1041100039462046FFF7C3FE08B9002DF7D13146D6
:104120002046FFF71FFF10B10020BDE8F0810120FD
:10413000FBE70000FFFF03000004001000540040F4
:10414000010003008200070070B5304C01212046B9
:10415000FFF79BFE01212046FFF7F0FE2C4D204685
:104160002946FFF79CFE0028F9D000229021204626
:1041700000F055F8274E20463146FFF790FE002804
:10418000F9D00021204600F052F8224EB61C3146EC
:104190002046FFF784FE0028F9D001212046FFF7D2
:1041A000CDFE29462046FFF77AFE0028F9D00122ED
:1041B0009021204600F033F8154E154D761C3F3502
:1041C00031462046FFF76BFE0028F9D029462046ED
:1041D000FFF765FE0028F9D0204600F01DF8060222
:1041E00000212046FFF751FE01212046FFF7B0FED7
:1041F00029462046FFF753FE0028F9D0204600F05C
:104200000BF83043C0F34F1070BD00000054004065
:104210000100030082000700008AC0B2704712B19B
:1042200041F0010101E001F0FE01018270470182CD
:1042300070470029018802D041F4004101E0C1F338
:104240000E0101807047000070B5124C0D460F281A
:10425000217804D00A280BD0A8B1FF2070BD042912
:1042600001D200200CE00A20FCF74EFD401B07E0C5
:10427000FB2901D9FF2003E00A20FCF745FD284473
:104280002070C1B201E025702946BDE870400A20C7
:10429000FCF7A8BD0C0700200D4810B5016A0D4CB5
:1042A00001290ED0406901F035FC0146204604F09A
:1042B000AAFC0948C08800F0FFFABDE8104000F0F1
:1042C0004BB92046BDE8104041F2111104F09BBCEF
:1042D0000C07002000380040D40A002010B5044626
:1042E00000F092F8084B6421D868B0FBF1F060430D
:1042F00000F0E2FA586920F0010058615869BDE801
:10430000104000F09FB800000C0700202DE9FE4F80
:104310002E4C0646A16024208DF800004FF00008C6
:104320008DF801808DF8028001208DF80300684629
:1043300001F0E6FF00F0E8F9FCF7B2FADFF890B020
:10434000E062032806D280215846FFF703FCE06AAA
:10435000BDE8FE8FA146012100274FF40075648857
:10436000880302F0C1FADFF86CA0504604F0FEFBAF
:10437000ADF80050ADF80480ADF80840ADF802701B
:10438000ADF80650ADF80A806946504600F016FABE
:1043900000227121504604F02AFC0121504600F011
:1043A000A9F918232A460021B0B2C9F82860FCF701
:1043B0009BFB28B140215846FFF7CCFB0320C7E701
:1043C00029465846FFF7C6FB0020C1E70C0700202E
:1043D000001C01400038004010B51F2000F076FDA1
:1043E000002000F0ABFD4FF6FF7000F0B8FB054970
:1043F000002000F069FC0349BDE810401431302072
:1044000000F062BC4507002010B5002271210A4867
:1044100004F0EDFB094902204862486A0020086365
:1044200048630748C088012803D1486920F001008B
:104430004861486910BD0000003800400C070020AA
:10444000D40A002010B5064CA06801206062606AA2
:1044500001227121034804F0CAFB606910BD00000D
:104460000C0700200038004010B5022806D0BDE837
:1044700010404FF400610648FFF7C9BA4021002000
:10448000FCF7B0FC0021BDE810400846FCF7AABCD0
:104490000020014001498861C86170470C07002075
:1044A00070B5084D4FF4006421462846FFF7AFFA77
:1044B000FF22521EFDD121462846BDE87040FFF77D
:1044C00049BB00000020014010B50446FFF79CFFE7
:1044D000084B6421D868B0FBF1F06043FDF7F4FEAF
:1044E000586920F0010058615869BDE81040FFF795
:1044F000A9BF00000C0700202DE9F04106460F4639
:10450000FFF7CEFF084C656939463046FFF7FEFEDF
:10451000002807D165612178FFF796FE2846FFF74E
:1045200091FF0020BDE8F0810C07002070B500224B
:104530007121074804F05BFB064C002565610220F1
:10454000FFF792FF6562606A25636563002070BDB6
:10455000003800400C07002070B50D4C606A0D4D0E
:1045600038B90421284604F027FB012801D1FFF7C0
:10457000DDFF606A022809D10421284604F01CFBF3
:10458000012803D1BDE87040FFF73EBF70BD0000B9
:104590000C0700200038004070B54F4C0026012168
:1045A0000420666002F06CFC4C49884201D0012076
:1045B00070BD0021042002F063FC494D01212860F8
:1045C000042002F05DFC4749884201D0022070BD02
:1045D0000121042002F054FC4349884201D0032009
:1045E00070BD0021042002F04BFC102800D00126F1
:1045F0000021022002F044FC80B2A880012801D0F2
:10460000042070BD0021022002F03AFCE880002165
:10461000042002F035FC45F22261421AA86088426B
:1046200007D008DC4FF4FA51884202D04900884292
:1046300009D161800FE0A2F5AC42223A05D0A2F583
:1046400070623C3A04D0062070BD4AF6444001E056
:104650004BF6803060800021042002F011FCE860FD
:104660000021022002F00CFC28820021022002F02E
:1046700007FC80B26882102801D0072070BD012E8F
:1046800016D10021022002F0FBFB08B1092070BD09
:104690000121042002F0F4FB1449884201D00A20D1
:1046A00070BD0021042002F0EBFB616808446060EB
:1046B0000121042002F0E4FB0D49884201D00820CA
:1046C00070BD0021042002F0DBFB68616168206995
:1046D00008442061002070BD0C0700204646495266
:1046E000D40A00204556415720746D667463616694
:1046F000617461640029818B02D041F4806101E022
:1047000021F48061818370472DE9F843012140F253
:10471000991002F001F94FF43040ADF80000032485
:104720008DF802401820DFF884908DF80300694668
:104730004846FFF713F9C025ADF8005069461C48FC
:10474000FFF70CF94FF47076ADF80060DFF8648085
:104750008DF8024010278DF8037069464046FFF738
:10476000FDF8ADF800508DF802401C208DF80300D4
:1047700069464846FFF7F2F80121480502F0B4F80F
:1047800031464046FFF743F90B4EFD0129463046BE
:10479000FFF73DF9ADF800508DF802408DF8037039
:1047A00069463046FFF7DAF8BDE8F883000C0140AF
:1047B00000100140001C014000200140F0B50546FA
:1047C0000C4602200021AA8B85B001264FF240033F
:1047D0001A40AA832884AF8B2289022A22D0A0887B
:1047E00000B10226684602F0DFF8E088B0F5007FED
:1047F00029D0218970014843009901EB81014900CA
:10480000B1FBF0F0401D80B20A21B0FBF1F000F0E6
:104810000101401AC0F34F000902821EFE2A01D393
:1048200002200021E288084302432A84208861880C
:1048300062890843A18811430843384340F400606B
:10484000A88305B0F0BD0098218900EB80004000EE
:104850000902B0FBF1F0D5E77047000010B5134C2A
:104860002068017A022904D0042902D0062905D043
:1048700015E0FCF7A3FE2068007A11E041780529D5
:1048800009D10178490606D1C07804F0ABFC08488C
:104890000068006A804707480068806880470820F1
:1048A00021680872BDE8104001F086BE4C0A002065
:1048B000540A0020500A0020074900B54A691044F4
:1048C00048614869C968884205D302F0D3FC5DF8A5
:1048D00004EBFDF705BD00BD0C0700207CB50646C6
:1048E0006846FDF711FF002548F288047EB1204696
:1048F000FDF7BCFE8DF804500C208DF8050001205A
:1049000000948DF806006846FDF7C6FE7CBD009455
:104910008DF80650F7E70000FEB501F0CFFC00214E
:104920004FF0006001F044FD4FF4A06001F026FD5F
:1049300000221146394801F045FD09208DF800009C
:1049400002258DF8015001248DF802408DF80340B6
:10495000684601F0D5FC17208DF800008DF8015055
:104960008DF802408DF80340684601F0C9FC28200C
:104970008DF800008DF8015000258DF802508DF85B
:104980000340684601F0BCFC03268DF800608DF8FA
:1049900001508DF802508DF80340684601F0B0FCDC
:1049A00014208DF800008DF801408DF802508DF82C
:1049B0000340684601F0A4FC13208DF800008DF838
:1049C00001508DF802408DF80340684601F098FCD4
:1049D00019208DF800008DF801408DF802608DF8E7
:1049E0000340684601F08CFC29208DF800008DF80A
:1049F00001408DF802408DF80340684601F080FCCC
:104A0000600401908DF8085008208DF809008DF899
:104A10000A4001A8FDF740FEFEBD00009AC3020057
:104A200070B5044640482A25806801043F4801606B
:104A30000D214160402181600021C1604FF48061FF
:104A4000016103F0D9F93A49486B10F0450FFBD0EA
:104A5000410702D50324042003E0C00705D0012448
:104A6000204603F037F9204670BD03F073F90D2896
:104A70002ED140F2FF5003F02DF9002003F08CF905
:104A8000C0F3432121702B4908424BD0002801DAA2
:104A90001C2070BD410001D5092070BD810001D5E9
:104AA0000A2070BDC10001D50B2070BD010101D5E8
:104AB0000C2070BD410101D50D2070BDC10101D593
:104AC0000E2070BD010201D50F2070BD410201D53D
:104AD000102070BD810201D5112070BDC10201D529
:104AE000122070BD010301D5132070BD410301D513
:104AF000142070BD810301D5152070BDC10301D5FF
:104B0000162070BD010401D5172070BD410401D5E8
:104B1000182070BD810401D5192070BD000701D592
:104B20001A2070BD284670BDAC0900207415002005
:104B30000080014008E0FFFD81070CD16421B0FB3B
:104B4000F1F201FB120141B94FF4C871B0FBF1F26F
:104B500001FB120008B1002070470120704730B5FA
:104B60000546002440F23F11204600F0B5F94FF011
:104B7000D841222008804FF496304D80641C844236
:104B8000FBD330BD01A100F09FB800002020202001
:104B90002020202020202020202020202020202015
:104BA0000000000008B50121080201F091FE01217A
:104BB00040F2E11001F0B0FE4CF23370ADF80000AD
:104BC00003208DF8020018208DF8030069460D4877
:104BD000FEF7C4FE4FF68070ADF8000069460A4843
:104BE000FEF7BCFE0120ADF8000069460748FEF75D
:104BF000B5FE4FF48050ADF8000069460448FEF75A
:104C0000ADFE08BD0014014000180140001C014029
:104C100000200140203AD2B2034B02EB420203EBE8
:104C2000021200F067B8000054B6000870B50446E0
:104C3000FFF7D2FB01210D02284601F049FE4FF497
:104C4000784000F07BF94FF6FF70FFF788FF012CEA
:104C500004D0022C04D0032C19D006E00D4901E049
:104C60000C491431A82000F02FF80BA1C02000F04F
:104C70002BF80FA1D82000F027F80021284601F0DA
:104C800027FE00BF02F08AF80028FBD070BD014962
:104C90001439E7E73508002050757368204A6F79AA
:104CA000537469636B20746F202020200000000083
:104CB000657869742E2020202020202020202020AC
:104CC0002020202000000000F0B507460D460026F9
:104CD00040F23F1407E021463846FFF79BFF103CA7
:104CE0006D1CA4B2761C2A78002A01D0142EF2D3AF
:104CF000F0BD00002DE9F04F8B469046002504469C
:104D000000F0EAF8114F4FF0220A4FF001094FF07E
:104D1000D84600BFA6F800A00020494638F8152064
:104D200001FA00F31A420FD03A887280401C102812
:104D3000F4D3641CE4B25946204600F0CDF86D1C53
:104D4000182DE7D3BDE8F08F7A88EEE7180600202B
:104D50002DE9F0471746984606468A46002400F09B
:104D6000BBF8222110484FF0D845B8F1000F02D00F
:104D70008946804614E0298002E001886980641C2D
:104D8000BC42FAD3BDE8F087A5F80090B8F800005F
:104D90006880761CF6B25146304600F09DF8641CDF
:104DA000BC42F1D3EEE7000018060020F0B51C4627
:104DB000164605460F4600232246FFF7C9FFA819ED
:104DC000C0B2002322463946FFF7C2FF0123324614
:104DD00039462846FFF7BCFF381B401C81B23246DB
:104DE0002846BDE8F0400123FFF7B2BF00B595B0FB
:104DF000002001210E90CDE90F0106211490CDE98C
:104E000000101190129010211390CDE9020104902E
:104E1000059009020690CDE9070109900A900B90D0
:104E20000EA80C900D906846FEF76EFB012106203F
:104E3000FEF75AFB15B000BD2DE9F14F1E4882B0B8
:104E40000568001D06681D480768001DD0F8009021
:104E50001B48006800901A48001DD0F800B0194C9B
:104E6000D4F80080D4F804A00121801501F030FDB1
:104E7000FEF7A8FB1448FEF721FCFEF737FC02986A
:104E800000F0C8F90021A01501F022FD0A480560D4
:104E9000001D066009480760011DC1F8009008491F
:104EA00000980860091DC1F800B0C4F80080C4F87B
:104EB00004A0BDE8FE8F000000140140001801406E
:104EC000001C0140002001404A00002001494880A8
:104ED00070470000180600200B4600B50146202050
:104EE00000F0BDF9194621205DF804EB00F0B7B9D8
:104EF00030B504460D46904203D3A01A401C81B23F
:104F000000E00021502000F0AAF92146512000F0D5
:104F1000A6F99D4203D3E81A401C81B200E00021AB
:104F2000522000F09CF92946532000F098F92946B8
:104F30002046BDE83040FFF7CFBF000001490880A0
:104F400070470000180600202DE9F05F05464FF479
:104F5000807900240121484601F0BAFC4FF6FF7722
:104F60004FF48056B5F1807F7ED00DDC4FF61F08E0
:104F70004FF4967A4FF49B7B4D4532D0B5420AD020
:104F8000B5F5801F20D190E0B5F1805F52D09748F1
:104F9000281819D127E1FEF713FE642100FB01F464
:104FA000FEF714FEB4FBF0F010F0FF0440460CD006
:104FB000FFF7C4FFA4EB840000F59B7081B20123CE
:104FC0001022C020FFF7C4FE85E0FFF7B7FFC02026
:104FD000FFF7D8FD534610225946C020FFF7E6FEE2
:104FE00079E0FEF7EDFD642100FB01F7FEF7EEFD31
:104FF000B7FBF0F0C7B24046FFF7A0FFC020FFF7B5
:10500000C1FD534610225946C020FFF7CFFE40464F
:10501000FFF794FF0BE000BFA4EB840000F59B704A
:1050200081B201231022C020FFF792FE641CBC4213
:10503000F2D950E03846FFF781FF6D494820FFF76D
:1050400043FE6B4960201431FFF73EFE4FF4784079
:10505000FFF774FF664990202831FFF735FED8200E
:10506000FFF790FD002000E074E0FFF767FF762275
:10507000FA21D820FFF7CEFD6F22EB21D820FFF7D1
:10508000C9FD6C22DC21D820FFF7C4FD2D22C821E8
:10509000D820FFF7BFFD2B225521D820FFF7BAFDFE
:1050A00064230A22B921E02098E73846FFF746FF3B
:1050B0004F4948202839FFF707FE4D496020143931
:1050C000FFF702FE4FF47840FFF738FF4849902081
:1050D0005031FFF7F9FDB54236D000BFFEF788FD2D
:1050E000C0F1FF0064214843FF21B0FBF1F0C4B2DE
:1050F0001F20FFF723FF3E4D0123793D082228782A
:10510000C0F1B90081B2E220FFF722FE2878012326
:10511000C0F1BA0081B20822E220FFF719FE4FF475
:105120007840FFF70BFFC4F1B90081B201230822D8
:10513000E220FFF70DFEC4F1BA0081B2012308227C
:10514000E220FFF705FE2C704846BDE8F05F002125
:1051500001F0BEBB0020FFF7F1FE254900207839A1
:10516000FFF7B2FD224930206439FFF7ADFD384624
:10517000FFF7E4FE1E4948205039FFF7A5FD1C4902
:1051800060203C39FFF7A0FD4FF47840FFF7D6FED2
:10519000174990203C31FFF797FDD820FFF7F2FC2C
:1051A0000020FFF7CBFE7622FA21D820FFF732FD50
:1051B0006F22EB21D820FFF72DFD6C22DC21D820B7
:1051C000FFF728FD2D22C821D820FFF723FD2B2231
:1051D0005521D820FFF71EFD64230A22B921E020C3
:1051E000FFF7E4FD7AE7FFF7F7F823E700FFEEEEBD
:1051F000BD07002000B54FF4A073F022591EEF2028
:10520000FFF776FE41F2180103205DF804EB00F091
:1052100026B8000010B54188828841EA02424189DF
:10522000838941EA0341521A4318540841F20801A4
:10523000032000F014F84FF0D8412220088000200D
:1052400004E000BF33F8022B4A80401CA042F9D38F
:10525000BDE8104041F218010320AFF300804FF089
:10526000D84210805180704710B50D490D4C01286F
:105270000CD00020886002460121204604F0FCFF8B
:1052800000212046BDE8104004F0EBBF01208860FB
:1052900002460146204604F0EFFF0121F1E700003D
:1052A0000C000020002C014030B589B0684605F0A4
:1052B00043F803A805F018F84FF47070ADF81C001F
:1052C00003208DF81E0010208DF81F0007A9134839
:1052D000FEF744FB40F2CF20ADF80000002442F27C
:1052E0000F70ADF804000E4DADF80240ADF8064069
:1052F0008DF808406946284605F000F8ADF80C40E6
:105300000120ADF80E00ADF81040ADF8124003A931
:10531000284604F0B9FF09B030BD0000001C014070
:10532000002C01404FF480710148FEF770BB000073
:10533000001C01404FF480710148FEF70BBC0000D7
:10534000001C014010B50121080701F0CDFA012031
:1053500001F02AF9BDE81040012001F001BB10B5B1
:10536000002000F079F80121080201F0B1FABDE84F
:105370001040012000F070B82DE9F843334FDFF8FA
:10538000D0904FF40076A7F1080807F1080560B146
:105390006846FDF76BFF9DF8010050B13002686070
:1053A00041027E60C8F804104DE002F0BDFE2A28DC
:1053B00004D080214846FEF72AFB41E0254802F050
:1053C0007DFD244CB4F84C00000403F023FA217E48
:1053D00094F84E00891C022826D0227A01209040A1
:1053E000C21700EBD25022694012521C8A4040087A
:1053F00082402A603E6028684102C8F8001080217F
:105400004846FEF7A7FBB4F84C00000403F002FA8C
:105410000E4C0C3C20604FF4006002F013FD206045
:1054200020682A280CD104E02069401C80022860F2
:10543000E0E7002003F004FA206020682A2802D068
:105440000120BDE8F8830020FBE70000E008002011
:10545000001C0140EC0A002070B5002518B101289D
:105460001AD0012070BD02F05FFE0E4C20600E4885
:1054700002F024FD20600C48B0F84C00000403F05A
:10548000C9F920604FF4006002F0DCFC20600020CD
:1054900003F0D6F9206002E000F088FC05462846BB
:1054A00070BD0000D4080020EC0A002010B50400F4
:1054B000084611461A4602D0012C07D108E003F035
:1054C000A7F80549086008682A2803D0012010BD04
:1054D00000F078FC002010BDD408002010B50400B6
:1054E000084611461A4602D0012C07D108E003F005
:1054F000C9F90549086008682A2803D0012010BDB1
:1055000000F08EFC002010BDD40800200D4900B52D
:1055100009680A7802F07F02212A08D1FE2806D104
:10552000488820B9888810B9C888012801D002208D
:1055300000BD0548886100204882FEF771FB00200D
:1055400000BD00004C0A0020213C0008014904F085
:10555000E1BC000080060020014904F0DBBC000033
:105560007806002005490968C978052901D9002075
:105570007047034A02EBC10104F0CCBC4C0A002086
:10558000B806002009B9002800D0022070470000AA
:105590000F4910B509680A7802F07F02212A07D165
:1055A000FF2805D1488818B9888808B9C88808B183
:1055B000022010BD0120FBF76FFE0220FBF75AFE10
:1055C00005490448086005490020087010BD000026
:1055D0004C0A002055534243E0150020D409002016
:1055E00070B5314800253249857230480968C07964
:1055F0004872284603F0EEFD4FF40071002003F0DE
:1056000097FE2021002003F07DFE1821002003F0EA
:1056100007FE284C0020217803F012FE58210020BC
:1056200003F052FE0020FBF749FE002003F03EFE8F
:105630000021012003F07CFE9821012003F044FEAC
:105640002021012003F05EFE0021012003F018FE5E
:105650000021022003F06CFED821022003F0E0FDBF
:105660002178022003F0ECFD4FF44051022003F0BA
:1056700007FE0021022003F045FE2178002003F000
:10568000DFFD002003F012FE002003F0ABFD0A490D
:10569000012008600A49094808600A480570BDE809
:1056A000704005F097BB00006416002036C8000863
:1056B0004C0A0020B406002008070020555342433E
:1056C000E0150020D40900207047704710B5FEF7A0
:1056D000B5FA094800240068847200F09FFF07486B
:1056E000046007494FF4044008800449091F08601A
:1056F0000448046010BD00004C0A0020445C0040D7
:10570000580A00200807002004480549006888421C
:1057100002D00220FBF7FAB870470000E015002025
:1057200055534243124B10B5187802280AD04FF453
:105730004054032811D0042801D0052817D1002097
:1057400018700EE00B48C17B282910D1D3E9011253
:10575000407BBDE8104001F05DBE0121002003F058
:1057600009FE2146BDE81040022003F089BD10BDAE
:10577000D4090020E015002070B5174D0220EE7B03
:10578000FEF700FA154C0246D8216080A5F14000D2
:1057900000F0CAFE207818B1012805D0022006E0EA
:1057A000BDE87040FBF7D4B82A2E0DD00120FBF7DE
:1057B000ADF8687B2422052103F012FEBDE870409D
:1057C0000021022003F0D6BDD4E90112687BBDE8B8
:1057D000704001F007BF0000E0150020D409002050
:1057E00010B50020FFF77AF801F0D8FA0028FBD1B5
:1057F0004FF6FF742046FFF7B2F90121080201F0CD
:1058000067F81F20FFF762FB2046FFF797FB11A107
:105810006020FFF759FA15A17820FFF755FAFDF738
:10582000D1FC00F07DFA17A16020FFF74DFA1BA113
:105830007820FFF749FA00BF01F0B0FA0128FBD148
:105840002046FFF78CF9FCF733FEBDE8104001203D
:10585000FFF744B8204572617365204E414E4420E5
:10586000436F6E74656E742000000000506C6561BB
:10587000736520776169742E2E2E20202020202031
:105880000000000020202020204E414E4420457280
:105890006173656420202020000000002020546FE8
:1058A00020657869742050726573732053454C20CD
:1058B00000000000094810B50068807A00280BD06D
:1058C0000749052008600120FBF7E6FC0220FBF7F2
:1058D000D1FC04490020087010BD00004C0A0020D3
:1058E00008070020D40900200149042008607047FF
:1058F00008070020F8B50020FEF7F0FF01F04EFA8F
:105900000028FBD101210C02204600F0E1FF4FF6F8
:10591000FF763046FFF723F980231A46DF21A020C7
:10592000FFF7E6FA3248FFF787FA0121204600F038
:10593000CFFFFFF75FFC1F20FFF7C8FA3046FFF7E5
:10594000FDFA2CA1C020FFF7BFF930A1D820FFF746
:10595000BBF905F0EDF9FFF702FD03F047FD142058
:105960008DF8000001248DF801408DF802408DF87B
:105970000340684600F0C4FC13208DF800008DF849
:10598000014000258DF802508DF80340684600F074
:10599000B7FC31208DF800008DF801508DF80250D1
:1059A0008DF80340684600F0ABFC05F0D9F91D4CBA
:1059B00003E000BF01F0F2F970B920680528F9D1C1
:1059C000D820FFF7DFF818A1C020FFF77DF900BF4E
:1059D00001F0E4F90128FBD100F010FE3046FFF79A
:1059E000BEF8FCF765FD0120FEF778FFF8BD00006A
:1059F000968FFE6420506C7567207468652055533F
:105A000042204361626C65200000000045786974A3
:105A10003A202050757368204A6F79537469636B1C
:105A200000000000080700202020546F2073746FCE
:105A3000702050726573732053454C2000000000A5
:105A40002DE9F84305460E464FF4807914460121AE
:105A5000484600F03DFF01210220FDF745FD1820DA
:105A60008DF8030003208DF80200DFF854804FF416
:105A70000077ADF8007069464046FDF76FFF03E020
:105A800016F8010B05F8010B2000A4F10104A4B2E3
:105A9000F6D100210220FDF727FD10208DF803002C
:105AA000694644464046FDF759FF39462046FEF711
:105AB00051F80021484600F00BFFBDE8F8830000D4
:105AC00000200140F8B501210D02284600F000FF3A
:105AD000FDF778FDFDF70AFE00210220FDF704FD29
