:020000040800F2
:1000000000040020B1260008C9260008CB260008FD
:10001000CD260008CF260008D126000800000000E9
:10002000000000000000000000000000D3260008CF
:10003000D526000800000000D7260008D9260008B1
:100040003D270008412700084527000849270008E8
:100050004D27000851270008552700085927000898
:100060005D27000861270008652700086927000848
:100070006D270008712700087527000879270008F8
:100080007D270008812700088527000889270008A8
:10009000DB2600089127000895270008992700080B
:1000A0009D270008A1270008A5270008A927000808
:1000B000AD270008B1270008B5270008B9270008B8
:1000C000BD270008C1270008C5270008C927000868
:1000D000CD270008D1270008D5270008D927000818
:1000E000DD270008E1270008E5270008E9270008C8
:1000F000ED270008F1270008F5270008F927000878
:10010000FD27000801280008052800080928000824
:100110000D280008112800081528000819280008D3
:100120001D28000821280008252800082928000883
:1001300010B5DFF8A046002800D12BE000F098F8B9
:100140000068804720680A3010BD80B500F037F99C
:10015000C178DFF8782752788A420CD38278002A57
:1001600009D18288002A06D1817200F081F84068A6
:100170008047002002BD022002BD10B5DFF85446C2
:10018000002800D106E000F073F8806880472068FE
:100190000C3010BD206801210182002010BD10B577
:1001A00000F00EFAC1784079DFF8D0261268926923
:1001B000904721688A7A002A07D0002805D108795B
:1001C000002802D18878002801D0022010BD00F05C
:1001D0004FF8C068804720684179C1722068C178B3
:1001E0000173002010BD000010B5DFF8E8150968A4
:1001F000002802D10220088236E01C4C002020801A
:10020000087800227F23184213D1487A810602D54C
:1002100042F0020121704006207854BF40F00100F6
:1002200000F0FE00207000F023F8006980472046AF
:1002300010BD00F07F03012BF9D000F07F000228F1
:1002400012D1487900F00F0142F0010200F085FA66
:1002500005D500F030001028E5D12270E3E700F466
:100260004050B0F5805FF7E7002010BD401400203B
:1002700001480068704700BF2414002070B500F0EA
:100280009EF8017811F07F0104D1417A01F0DF017D
:1002900041724EE0022905D14188002902D101793D
:1002A000002901D0022070BD417921F08005DFF8DE
:1002B00020460A0654F825204CBF02F0300202F412
:1002C0004052DFF808361B789D42EBD2002AE9D075
:1002D000807A0028E6D0080654F825000BD500F0F7
:1002E0003000102821D1284601F019FB3021284682
:1002F00001F0D8FA19E000F44050B0F5805F14D155
:100300004BF68F763DB900F0BFFA2068304080F49C
:100310004050206009E0284601F0F2FA54F8250028
:10032000304080F4405044F82500FFF7A1FF4069B9
:100330008047002070BD38B5DFF898040268537913
:1003400023F08000DFF888151C0651F820404CBFD0
:1003500004F0300404F44054DFF870552D78A842BE
:1003600007D25588002D04D1002C02D0927A002AA1
:1003700001D1022032BD1A0651F8202005D548F6D9
:10038000BF731A4082F0100204E04BF68F731A40DC
:1003900082F4805241F82020FFF76AFF806980478D
:1003A000002032BD80B500F00AF8417A41F020010A
:1003B0004172FFF75DFFC0698047002002BDDFF892
:1003C000140400687047DFF80C241268538A20B9BF
:1003D0008888C01A10820020704708681818704773
:1003E000F8B5DFF8F053286800F110063488B168DA
:1003F000080015D0A4B1B088844200D90446204634
:10040000884707463088001B30807088201870802D
:10041000002001F094FA22460146384602F09BF88B
:10042000DFF86044308838B100F092F900210020F4
:1004300001F08CFA3020208028683188B2889142FF
:1004400002D303210172F1BD002901D00521F9E792
:1004500006210172DFF87803006880B25749002254
:1004600041F8102030202080F1BD2DE9F04100F04E
:10047000A7F800F11005298879B9007A04280CD171
:10048000B2480178012905D100F08FF83021042607
:10049000037028E00726102125E0AF888F4205D39E
:1004A0000426B94200D939460F4600E00226B8B208
:1004B000A96888478046002001F040FABAB2014698
:1004C000404602F035F8B9B2002001F03FFA288822
:1004D000C01B28806888381868803021DFF8A003A6
:1004E0004FF440520280DFF89C03018020680672BE
:1004F000BDE8F08138B500F063F8457801787F22D7
:1005000011422CD1092D02D1FFF71FFE38E0052D35
:100510000BD1C178802906D2817821B9818811B99F
:10052000807A002838D008203CE0032D0AD1C17819
:10053000012926D1818821BB407A800621D5FFF789
:1005400031FF1DE0012D1CD1C178012919D181880D
:10055000B9B9407A800614D5FFF790FE10E001F09B
:100560007F00012804D10B2D0BD1FFF718FE07E007
:10057000022806D1012DEFD0032D02D1FFF7DBFEBB
:1005800050B12846BD49096849698847032801D107
:10059000092007E00028C6D1062000F006F8B94976
:1005A00030220A802168087231BD8949096889B200
:1005B000024A002342F811307047000004600040F6
:1005C000844C20687047000038B5824D2868417817
:1005D000AA4C2268062910D101787F2319422AD11A
:1005E0008078012801D1D1696BE0022801D1116A1C
:1005F00067E003281FD1516A63E000293FD1418899
:10060000C9B9C188022916D10179A1B901787F231E
:10061000194203D183880BB9494952E001F07F03A5
:10062000012B13D1002140799269904718B92868AD
:10063000807A0028F0D128684078216809698847C5
:10064000032847D128680921017231BD01F07F01DB
:100650000229F0D1407900F00F0100F0700200F0A3
:100660007CF84CBF00F0300000F44050974B1B78F2
:100670009942E0D2002ADED10028CDD1DBE708295B
:1006800005D100787F210842D5D12E4919E00A29E9
:10069000D1D1017801F07F010129CCD1817A0029E3
:1006A000C9D041880029C6D101790029C3D1C188A8
:1006B0000129C0D100214079926990470028BAD120
:1006C00021490800B7D028680022428281610020B9
:1006D0008847002029680A8A4FF6FF739A4202D1A0
:1006E0000920087231BD022801D0002A01D108205A
:1006F000F7E7087800061ED5C88800902368009C9C
:10070000944202D2009808820FE082420DD293F800
:100710002C000E4C824201D2002005E092FBF0F545
:1007200000FB152008B90120207093F82C00888266
:10073000BDE8314099E60320087200F009F831BDA8
:10074000E9010008310100087B0100085A1400206B
:100750004B484FF44051018070475D4B000653F801
:100760002100704738B518481949096889B2174AF5
:1007700032F8111000EB4100164C21680A7A092A60
:1007800014D010F8012B0A70216810F8012B4A7060
:10079000851C35F8040B01F017F92168488028887A
:1007A00001F012F921688880A888C880206801219A
:1007B00001722068C08810B9FFF79CFE01E0FFF7C6
:1007C00003FFBDE8314042E00060004008600040A7
:1007D000505C00401C14002010B5FFF7F1FE017AB8
:1007E000022901D0042904D1FFF73FFE2068007AD6
:1007F00014E0062911D1417805290AD101787F2218
:10080000114206D1C07800F047F8FFF731FD006AC9
:1008100080471A48006880688047082013E010B5B8
:10082000FFF7CEFE007A032801D0052804D1FFF798
:10083000D7FD2068007A06E0072803D10F4800683A
:10084000C0688047082021680872BDE8104080B564
:1008500000F01AF8FFF7B3FD017A082906D108491C
:100860004FF480520A80074910220A80007A092832
:1008700001D1012002BD002002BD00002014002093
:100880005014002052140020024890F82C10002030
:1008900001F063B8CC16002070B50C49097800222D
:1008A0000B4B48F68F7607E0D4B253F8245035400E
:1008B000254343F82450521C8A42F5D340F080006F
:1008C0000149086070BD00BF4C5C0040101800205A
:1008D000005C00407047000080B500F0E9FDDFF8E3
:1008E000B4030021817201F041FB074800214160FF
:1008F0004FF43F41054A1180016000F0B9FD3048D6
:100900000021016001BD00BF405C00405814002080
:1009100038B5DFF8800300218172DFF81804006821
:100920001C49C97941721C4C00202065206848F69A
:100930008F1108404FF4007108432060206848F68A
:10094000BF71084080F020002060206D80B2134904
:10095000102241F81020124D95F82C10002000F0C4
:10096000FCFF206D80B20F49502241F8102095F80D
:100970002C10002000F0EAFF002000F0B5FF00205E
:1009800000F0A8FF0E48012101600020BDE83240C0
:10099000FFF782BF9C160020005C0040086000400A
:1009A000CC16002000600040BA48807A10B104489C
:1009B0000521016070470248042101607047000072
:1009C00044140020704738B5B2484078032835D128
:1009D000DFF8A043207804282CD1DFF89053696811
:1009E0002868A0B9DFF848030278002A17D0212A26
:1009F00004D1052913D100F022F810E0412A0ED1CC
:100A000005290CD100F01BF800F09CFD07E002283E
:100A100005D3801EEA6802EB802000F0AFFD0020C5
:100A20006860286003202070DFF84403032100F091
:100A30000DF931BD072801D100F07EF931BD4178B3
:100A4000827801EB0221C27801EB0241007901EBCF
:100A50000060E8607047000080B5B64909680A7810
:100A600002F07F02212A1DD1C24A1378022807D141
:100A7000022B01D0092B15D10E4A100014D111E020
:100A8000012807D1022B01D0052B0BD103201070B8
:100A9000094AF2E7052801D1084AEEE7032801D107
:100AA000074AEAE7022002BD8A6100204882904797
:100AB000002002BDB90B0008590C0008990C000871
:100AC000AD0C000810B59B490968097801F07F0159
:100AD00021293DD1A74B1C78A44AA54901280AD158
:100AE000052C01D0022C33D19060062000F03BF899
:100AF0000620087116E0022803D100F034F8022025
:100B0000F7E7042810D10A2C02D100F023F806E000
:100B10000A2018700E20087000F026F80A200871CC
:100B200000204871002010BD062811D1022C07D0EA
:100B3000032C05D0052C03D0062C01D0092CF1D1B3
:100B400000F008F808710020487110605060E9E773
:100B5000022010BD022018700020087048708870B4
:100B6000C870022070471870002048708870C870E4
:100B7000704700000149FFF726BC00BF04180020A1
:100B80000149FFF720BC00BFAC1700206949096884
:100B9000C978092901DB00207047024A02EBC10134
:100BA000FFF711BC64160020042901D3022070470E
:100BB0000328FBD200207047F8B5044635488178F9
:100BC000C27802EB0123694D2B60C179807900EB7B
:100BD00001216960574E3268578A6548DFF894C131
:100BE000ABB904292CBF022109218CF800109CF814
:100BF000001000F02BF84E48017021214170412176
:100C00008170002C21D1032010820020F2BD022B24
:100C100015D309228CF800200271002242708270E4
:100C2000C270981EEA6802EB802000F0C3FC24B971
:100C30006868C01B31680882E7E73818F2BD0F21E9
:100C40008CF8001000F002F80020F2BD01710021C4
:100C500041708170C170704710B544490D4A937856
:100C6000D47804EB03230B60D379947904EB03234A
:100C70004B60518A3F4A032414703D4A147128B9CD
:100C8000581A2C4909680882002010BD2848081805
:100C900010BD000000140020002805D12548006880
:100CA00001210182002070473248704738B505465F
:100CB0002F4C2E492F480278032A02D0062A16D03C
:100CC0002BE04A688AB1042202702271C868096860
:100CD00041B917490978412904D12246002100F081
:100CE00085FC1AE022460121F9E705210FE08A6818
:100CF000012A06D1072101702171012060700020B6
:100D000009E052B90969097D490706D50221017038
:100D1000217100206070A070E070002D05D10548A1
:100D2000006806210182002032BD204632BD00004D
:100D3000001000201C1400200C49002088600C4882
:100D40000C4A0969097D490707D50621117001710F
:100D5000002141708170C1707047082111700171CC
:100D6000002141708170C17000F092BB9C1700207F
:100D7000B4170020BC1700208848016841F0010129
:100D800001604168084A114041600168074A11400A
:100D90000160016821F480210160416821F4FE01B5
:100DA00041600021816070470000FFF8FFFFF6FE00
:100DB0007A490A6822F480320A600A6822F48022A2
:100DC0000A60B0F5803F03D0B0F5802F04D07047A3
:100DD000086840F4803002E0086840F4A020086011
:100DE000704780B500200090312000F0C3F80099D2
:100DF000491C009118B90098B0F5A06FF4D13120CA
:100E000000F0B8F800B1012002BD3B4A136823F49A
:100E10007C131843084310607047000001490860C4
:100E2000704700BF6000424233490A68920892004E
:100E300008E03148006800F00C0070472E490A684D
:100E400022F0F0021043086070472B490A6822F430
:100E5000E062F7E728490A6822F4605242EAC000DB
:100E60000860704701490860704700BFD8004242DF
:100E700030B521490B681D4A03F00C03082B0FD134
:100E80000B6803F470139B0C9B1C0C68184D5D439E
:100E9000E40301D42A4603E00C68A403FAD45A43BD
:100EA00002600B68134A046803F0F0031B099B5CA3
:100EB00024FA03F343600C6804F4E064240AA45C9D
:100EC000E34083600B68446803F46053DB0A9B5C77
:100ED00024FA03F3C360096801F4404102EB913145
:100EE000097CB3FBF1F1016130BD00BF00127A0053
:100EF00000093D00C817002004100240044A0029E0
:100F0000116814BF084321EA00001060704700BF59
:100F100014100240044A0029116814BF084321EA52
:100F200000001060704700BF18100240044A0029FA
:100F3000116814BF084321EA00001060704700BF29
:100F40001C100240044A0029116814BF084321EA1A
:100F500000001060704700BF0C100240044A0029D6
:100F6000116814BF084321EA00001060704700BFF9
:100F7000101002404109094A012901D1116803E01A
:100F800002290CBF116A516A012200F01F0002FA07
:100F900000F0084000D00120C0B2704700100240AD
:100FA00070B596B001214FF4F070FFF7B3FF4CF22B
:100FB0000370ADF8000018208DF8030003208DF8B1
:100FC0000200794C00A9204600F066FF4FF68070C1
:100FD000ADF800002B4D00A9284600F05DFF4FF250
:100FE0003F00ADF8000000A9274800F055FF3F2062
:100FF000ADF80000254E00A9304600F04DFF4FF43B
:10100000605000F045F87820ADF8000000A92846AF
:1010100000F042FF302000F03BF84FF40070ADF8D4
:10102000000000A9304600F037FF022001900020A8
:1010300002900520039000200490059006904FF048
:1010400080500790022008900020099008200A9004
:1010500010200B9000200C900D900E900F904FF4EC
:1010600080501090002011901290139001A81490BD
:10107000159008A800F0A4FE0121022000F0FCFE5B
:1010800016B070BD00180140001C01400020014056
:10109000ADF8000000A9204600F0FEBE2649AA22B5
:1010A0000A80264A5523138090220A804FF0C841B7
:1010B0000A8802804A8842808A8B8280C98BC180DC
:1010C00070471D49AA220A801C4A55231380802399
:1010D0000B80AA230B805521118000F1C8403021DC
:1010E00001804FF420002BE010B5134AAA2313808F
:1010F000124B55241C80A023138000F1C8400180AE
:101100004FF4A050BDE810401AE070B505460E46F9
:10111000144635F8021B3046FFF7E6FFB61C641E86
:1011200008B9002CF5D170BDFFE74FF0C840F021A1
:101130000180002070470000AA0A00645405006482
:10114000E0B505462E46184F00E0761E4021384691
:1011500000F0FFFE08B1002EF7D12E4600E0761E0B
:101160004021384600F0F5FE08B9002EF7D1002DD9
:1011700018D06D1E4FF0C8400188028801F040036E
:1011800002F04002934201D10020E0BD01880088B6
:1011900001F0400200F040008242F5D08806E6D51A
:1011A0000220E0BD0320E0BD0014014010B586B070
:1011B000012141F20C00FFF7ADFEE020ADF8000088
:1011C00018208DF8030003208DF8020000A91C48A8
:1011D00000F062FE0420ADF8000010208DF803003E
:1011E000634C00A9204600F057FE00F046F80020AE
:1011F000ADF804004FF48270ADF806000020ADF8A1
:1012000008000220ADF80A000120ADF80C004FF4F0
:101210000070ADF80E000820ADF810000020ADF809
:1012200012000720ADF81400484C01A9204601F037
:10123000D3F80121204601F0EBF806B010BD00BF45
:101240000008014038B5044600F086F8484D0421F6
:10125000284600F088FED82000F062F800F056F82A
:10126000200A00F054F8E0B200F05AF804212846B1
:1012700000F077FEBDE831407CE00421204600F01C
:1012800070BEF8B505460E46144600F065F800F04D
:1012900040F8022000F044F8300C00F038F8300A32
:1012A00000F035F8F0B201E015F8010B00F038F865
:1012B0002046441E80B20028F6D10421384600F0B2
:1012C00050FEBDE8F14055E0F8B505460E4614461F
:1012D00000F01FF8032000F023F8300C00F017F89E
:1012E000300A00F014F8F0B200F01AF803E000F051
:1012F00015F805F8010B2046441E80B20028F6D1EF
:1013000004213846BDE8F44000F02BBE200CC0B2EA
:1013100006E0174F0421384600F025BEA520FFE760
:1013200038B50446094D00F013F80028FBD02146DB
:10133000284601F077F8012100F00BF80028FAD0D8
:10134000284601F071F8C0B232BD00000030014003
:101350000221284601F06AB810B500F004F8062012
:10136000FFF7DEFF11E0024C0421204600F0FBBD38
:10137000000C014010B5FFF7F6FF0520FFF7D0FF86
:10138000A520FFF7CDFFC007FAD404212046BDE811
:10139000104000F0E6BD000080B500F02BFB00F02F
:1013A0009DFC00F058F801210820FFF7B3FD012152
:1013B0004FF48070FFF7A2FD4FF48040ADF80000BD
:1013C00003208DF8020014208DF8030000A91948AD
:1013D00000F062FD002000F023F800F08BF80120FF
:1013E00000F01EF801BD80B50020FFF73BFD012194
:1013F0004FF40000BDE80440FFF798BD0748032103
:101400000160704705480449897A002914BF052105
:1014100001210160704700BF001400204414002027
:10142000044A00284FF48041104601D000F09BBDD3
:1014300000F097BD000C014080B500F00CF80420CE
:101440008DF803004FF48070ADF8000000A9074844
:1014500000F022FD01BD01214FF48070FFF75ABD5D
:101460004FF48071014800F074BD0000002001407D
:1014700080B514208DF8000000208DF801008DF853
:10148000020001208DF8030000A800F03DFF01BD1F
:1014900080B50020FFF7C4FF0348016801F4E06154
:1014A000024A1143016001BD0CED00E00400FA05A1
:1014B00010B50E48016842688068A9B10C4B99705C
:1014C0000C0A1C710C0C9C71090E19729A72110A8B
:1014D0001973110C9973110E19749874010A197506
:1014E000010C9975000E187610BD00BFE8F7FF1FBC
:1014F0004817002010B500F0CBFF00F097FE00F079
:10150000F1FF4C4C2046FFF7C9FDFFF70DFE208888
:10151000094942F22122012804D1A088904208D131
:10152000064805E0202804D1A088904201D1044853
:101530000863002010BD00BF641600203415002091
:10154000C814002010F07C4106D0B1F1006F07D024
:10155000B1F1C84F06D007E00449054A11600847B9
:101560000449FAE70449F8E70120704737220008E8
:101570003414002095240008F724000810F07C4261
:1015800006D0B2F1006F07D0B2F1C84F06D007E025
:10159000044A054B1A601047044AFAE7044AF8E780
:1015A000012070474122000838140020A1240008BF
:1015B0000525000810F07C4206D0B2F1006F07D07C
:1015C000B2F1C84F06D007E0044A054B1A60104735
:1015D000044AFAE7044AF8E7002070478722000827
:1015E0003C140020E12400082D25000830B5800EB1
:1015F00000F0030001F0010101280DD10D4B9C8882
:1016000042F22125AC4207D11B88202B01D10320B7
:1016100002E0012B00D10420054B03EB800030F8E1
:1016200011005070000A90700020D07030BD00BFD3
:10163000E0260008281400202DE9F84F48F6BF7472
:101640004BF68F75454E48F60F7B40F68F78464F28
:10165000DFF81C9123E057F820101FFA81FA5FEAA7
:101660000A410BD557F8201008EA010147F820106D
:101670003C4901EB800050F8040C80475FEA0A60A7
:101680000DD53A48007857F820100BEA010147F8C9
:101690002010334901EB800050F8040C8047786C2F
:1016A000A9F80000000456D547F6FF707864B9F831
:1016B000000010F00F002D490870CCD1386800F4FC
:1016C00040503080386800F0300070803868284022
:1016D00080F4005038603868204080F02000386086
:1016E000B9F80000C006386805D40BEA000038607D
:1016F000FFF772F815E081B2080601D53868F4E703
:10170000080506D5386808EA00003860FFF72AF8AF
:1017100007E00804C3D5386808EA00003860FFF71E
:101720007EF8386828403188CA0401D580F480509A
:10173000890402D580F4005080B2386038682040B7
:101740007188CA0601D580F01000890602D580F0A4
:10175000200080B23860BDE8F18F00BF5014002037
:101760006417002080170020005C00405B140020FC
:101770005614002080B52049401A17D04FF48061DC
:10178000401A1CD0401A23D0401A2AD04FF4684186
:10179000401A30D101214FF48040FFF7D3FB0021E4
:1017A0004FF48040BDE80440FFF7CCBB01214FF46B
:1017B0000030FFF7D3FB00214FF4003019E0012186
:1017C0004FF48020FFF7CAFB00214FF4802010E087
:1017D00001214FF40020FFF7C1FB00214FF400204E
:1017E00007E001214FF48010FFF7B8FB00214FF410
:1017F0008010FFF7B3FB01BD0044004030B585B059
:1018000005460C46288A4CF6FF710840E1880843DB
:101810002882A8894EF6F3110840A188084321893F
:10182000084361890843A881A88A4FF6FF41084010
:10183000A1890843A88200A8FFF71AFB0D4885423A
:101840000CBF039802981921484321688900B0FB16
:10185000F1F06421B0FBF1F21201130901FB130056
:1018600000013230B0FBF1F000F00F00104328818E
:1018700005B030BD003801400029818912BF41F414
:1018800000514DF6FF72114081817047C905C90DA5
:101890008180704700880140080000D00120C0B25C
:1018A0007047000010B500F010F848F6BF742340F0
:1018B000CC0601D583F01003890602D583F02003FE
:1018C0009BB2FFE742F8203010BDDFF8F82052F855
:1018D00020307047DFF8EC1051F820204BF68F7362
:1018E0001A4082F4405208E0DFF8D81051F8202066
:1018F00048F68F6300E000001A4041F8202070474E
:10190000304951F82020520408D551F8202048F6DB
:101910008F731A4042F4804241F8202070472949D1
:1019200051F82020520608D551F8202048F68F7330
:101930001A4042F0400241F8202070472EE01E4934
:10194000096889B201EBC0001A492DE01A4A1268F1
:1019500092B202EBC0001A4A1DE0174A126892B216
:1019600002EBC000154A02EB40003F2909D34A09A7
:101970001F23194201D1521E92B2910241F400413B
:1019800005E04A08C90701D5521C92B291020160D4
:1019900070474908490042F8101070470649096825
:1019A00089B201EBC000024951F8100080B27047C3
:1019B0000060004008600040505C00400C60004047
:1019C00004600040005C00400106090C41EA102060
:1019D000704700002D490A6802F0380205E02B49E3
:1019E0000A6822F010020A600A6810430860704713
:1019F000000000000248234901602349016070474C
:101A00000420024070B5054640F6FF76304600F0EF
:101A100057F8042813D11E4C206840F002002060C3
:101A20006560206840F040002060304600F048F8D3
:101A3000012804D0216841F6FD721140216070BD7B
:101A4000F8B500F017F8042813D1114E306840F0B3
:101A50000100306000F012F841F6FE77042803D14F
:101A6000200C688000F00BF8012802D03168394062
:101A70003160F2BD05460C460F2021E02C800F207E
:101A80001EE0000023016745AB89EFCD0020024036
:101A90001020024009480168C90701D5012070479C
:101AA0000168490701D5022070470068C00601D5CA
:101AB0000320704704207047000000000C20024003
:101AC00010B582B00446FFF7E5FF08E00098401E1D
:101AD000009000980028F9D1FFF7DCFF641E012870
:101AE00004D124B100200090FF20F1E704B90520C3
:101AF00016BD000070B596B001214FF4F070FFF7ED
:101B000009FA4CF20370ADF8000018208DF80300BC
:101B100003208DF802002E4D00A9284600F0BCF9E4
:101B20004FF68070ADF800002A4C00A9204600F066
:101B3000B3F94FF23F00ADF8000000A9264800F0CD
:101B4000ABF93F20ADF80000244E00A9304600F06C
:101B5000A3F94FF4605000F043F8302000F040F853
:101B60004FF48060ADF8000000A9304600F094F911
:101B70000320ADF8000000A9204600F08DF90020F8
:101B8000019002900220039000200490059006909E
:101B9000079004200890002009900A9010200B90D4
:101BA00000200C900D900E900F904FF480501090EC
:101BB000002011901290139001A81490159008A87D
:101BC00000F0FEF80121042000F056F916B070BDB7
:101BD0000014014000180140001C01400020014099
:101BE000ADF8000000A9284600F056B938B5FFF757
:101BF00023FC164DFFF734FCE8B100F033F8FFF793
:101C0000CFF9FFF777FF00F073FA11480068114928
:101C1000884210D11048E860104C214600F03EFB8D
:101C200004F11C0000F0ACFA0D4B2B61EA6840F6A1
:101C30008D01002098470A20287228702871FFF72C
:101C4000ABFBFFF7D0FB00F0E9FCFEE7B417002088
:101C50000030000872B6DFF8000100683C2400087C
:101C60000130000880B5FFF787F84FF48030FFF7A8
:101C70009FF8FFF7B6F8012824D11020FFF7AFFE38
:101C80000220FFF7A7FE0020FFF7D8F80020FFF79B
:101C9000E1F84FF48060FFF7D8F84FF4E0114FF40B
:101CA0008030FFF7B2F80120FFF7B8F83920FFF7CE
:101CB00061F90028FAD00220FFF7B6F8FFF7B9F86B
:101CC0000828FBD101214FF48070FFF717F901219B
:101CD00044F21400BDE80440FFF71CB982B0344858
:101CE000016841F0010101604168324A11404160E0
:101CF0000168314A11400160016821F480210160CE
:101D0000416821F4FE014160002181600191009150
:101D1000016841F480310160016801F400310091F3
:101D20000199491C0191009919B90199B1F5A06F68
:101D3000F2D1016811F4003100D00121C9B2009143
:101D40000099012932D11D490A6842F010020A6047
:101D50000A68920892000A600A6842F002020A6069
:101D60004168416041684160416841F4806141607F
:101D7000416821F47C114160416841F4E8114160FF
:101D8000016841F08071016001688901FCD54168FA
:101D9000890889004160416841F002014160416861
:101DA00001F00C010829FAD102B07047FEE700BF2C
:101DB000001002400000FFF8FFFFF6FE0020024086
:101DC00010B54FF02041426883681A43C3681A4334
:101DD00003691A4343691A4383691A43C3691A435F
:101DE000036A1A43436A1A43836A1A43C36A1A434B
:101DF000036841F823208268082A06D1026851F856
:101E0000223043F0400341F82230016B0A684B68EE
:101E100042EA03128B6842EA0322CB6842EA034299
:101E20000B6942EA03524B6942EA03628969114332
:101E300002689200A2F1C042516001680D4A836AB3
:101E4000B3F5804F10D1406B0368446843EA041334
:101E5000846843EA0423046943EA0453446943EA77
:101E600004638069184301E06FF0704042F821007C
:101E700010BD0000040100A04FF02042002952F8DC
:101E8000201012BF41F00101024B194042F820100E
:101E9000704700BFFEFF0F002DE9F041CB7803F043
:101EA0000F02DB0601D58B781A430B8801240F251E
:101EB000DEB216B3D0F800C0002604FA06F707EA2F
:101EC0000308B84514D14FEA860E05FA0EF82CEA3D
:101ED000080C02FA0EFE4EEA0C0C91F803E0BEF17B
:101EE000280F01D1476103E0BEF1480F00D107611F
:101EF000761C082EE1D3C0F800C04FF48076B342C0
:101F000025D3D0F804C0002606F1080704FA07F725
:101F100007EA0308B84515D14FEA860E05FA0EF810
:101F20002CEA080C02FA0EFE4EEA0C0C91F803E0C3
:101F3000BEF1280F00D1476191F803E0BEF1480FD0
:101F400000D10761761C082EDED3C0F804C0BDE8BE
:101F5000F0818068FFE70140080000D00120C0B296
:101F600070470161704741617047000031480121AD
:101F700001600021016041604FF4E051024A11808C
:101F800001600020704700BF5814002029480168F4
:101F900041F0080189B20160016841F0040189B291
:101FA0000160FFF72BBA10B5224C20684FF6FB7189
:101FB00008402060FFF726FA4FF43F40206010BD34
:101FC00010B51B4C072800D020701A48217805292D
:101FD0002BD8DFE801F003060A0E151FFFF7E3FF19
:101FE00023E0FFF7E0FF042020E0022060700320E0
:101FF0001CE06078FF3060706078002817D1F2E74D
:10200000016841F0100189B20160052020700A20AA
:10201000607010BD6178FF3161706178002906D170
:1020200001684FF6EF72114001600620207010BD6C
:1020300048140020405C004070B5284C284D2868AA
:102040006080284E608831880840400505D54FF6ED
:10205000FF3028602448406880473088618801400C
:10206000890402D54DF6FF71296061880840C004DB
:1020700005D54EF6FF7028600020FFF7A1FF6088AD
:102080003188084000050BD51848007810B1FFF7DB
:102090007DFF02E00220FFF793FF4FF2FF70286000
:1020A000308861880140890505D54FF6FF512960C8
:1020B0002178491C217061880840C00505D54FF67C
:1020C000FF6028600720FFF77BFF608831880840A9
:1020D000000401D5FFF7B0FA70BD00BF5414002012
:1020E000445C004058140020CC1600201418002036
:1020F00010B586B018208DF803004FF40070ADF8CD
:10210000000003208DF80200144C00A92046FFF7C0
:10211000C3FE04208DF803004FF48060ADF800008A
:1021200000A92046FFF7B8FE4FF49640019000202A
:102130000290ADF80C00ADF810000C20ADF80E00C8
:102140000E4C2046FFF716FB01A92046FFF756FB71
:1021500001212046FFF790FB06B010BD00080140AA
:1021600010B5064C01462046FFF790FB8021204623
:10217000FFF790FB0028F9D010BD000000380140A7
:1021800010B5044603E014F8010BFFF7E9FF2078CF
:102190000028F8D110BDF0B500F10801026801EB8C
:1021A000C202406802EBC000002300241D46012645
:1021B0000CE013F8017BF44506D00CF8017B6D1C94
:1021C0002DB2002DF7D40126F44509D1824200D169
:1021D000F0BD52F804CB52F8047B07EB0C0EF3E78A
:1021E000A34206D151F8043B51F8044BE418A34232
:1021F000F8D05EB113F9015B0026A34206D151F875
:10220000043B51F8044BE418A342F8D0002DD0D47D
:10221000002DD8D4F445D7D0A342D5D013F8017BF4
:102220000CF8017B6D1E2DB2F2E7000080B5FEF7C1
:10223000BDFF002002BD80B5FFF704F8002002BDFD
:10224000F8B50446084600F47F410D0A124EC2B2AA
:102250004AB101F20011884204D2FF22091A801902
:1022600000F086F86D1C002709E04FF480722146CB
:1022700006EB0720FFF705F804F200147F1CAF42BD
:10228000F3D30020F2BD10B5034C8AB201462046BC
:10229000FFF71AF8204610BD0010002038B50C4694
:1022A000164D2860052101601549416001218160BA
:1022B0004FF48051C16000210161016800EB810091
:1022C0002860204600F078F990B128680D494160F7
:1022D000204600F071F92A68801C1060214602F146
:1022E000080000F047F92868016800EB81002860C9
:1022F000286800214160016031BD00BF301400201A
:10230000010041540900415470B503781A46012177
:10231000C478ECB1154B1B6803F4E063C3F5E063CC
:102320001B0A4478C3F10405AC4085780F2626FAD1
:1023300003F32B4023431B01094C13550078421132
:10234000084B00F01F0001FA00F043F8220070BDB6
:102350005011054A03F01F03994042F8201070BD48
:1023600000E400E000E100E080E100E00CED00E0CE
:1023700062F30F2262F31F42401810F0030308D0EB
:10238000C91A1FD3DB0748BF00F8012D28BF20F86A
:10239000022D130030B414461546103928BF20E929
:1023A0003C00FAD8490728BF20E90C0048BF40F894
:1023B000042D890028BF20F8022D48BF00F8012D08
:1023C00030BC7047C91818BF00F8012DCB0728BFD3
:1023D00000F8012D70470000028802F441520B887A
:1023E0001A434B881A438B881A43CB881A430B89AC
:1023F0001A434B891A438B891A43CB891A430280AB
:10240000828B4FF2FF731A408283098A01827047E0
:102410000029018812BF41F040014FF6BF72114000
:102420000180704781817047808970470089014031
:10243000080000D00120C0B270470000696E6974C6
:102440003D2F6C696E7578726320636F6E736F6C6D
:10245000653D747479533000706C6174666F726D91
:1024600020496E697469616C69736174696F6E206B
:1024700066696E6973686564206A756D70696E67F8
:1024800020746F206B65726E656C2E0D0A00000063
:102490000020704780B5FFF7B5FA002002BD0000AC
:1024A000F8B504460D460D4E15F003000AD04FF660
:1024B000FC702840001D854204D2FF22411BA81950
:1024C000FFF756FF002705E0B9592046FFF7B8FA95
:1024D000241D3F1DAF42F7D30020F2BD00100020A5
:1024E0007047000080B5FEF75BFD01210220FFF779
:1024F000C3FC002002BD80B50002000AFEF7E1FD2A
:10250000002002BD10B5084BCA0704D5491CCA18E3
:10251000FF2402F8014C4A080102090A1846FEF796
:10252000F4FD002010BD00BF001000207047000027
:1025300010B50F4B03EB4101521C521009E010F88B
:10254000013B10F8014B43EA042321F8023B891CAC
:10255000521EF4D110BD064B03EB4101521C521028
:1025600004E051F8043B20F8023B521EF9D17047B9
:10257000006000405FEA000C830706D011F8013BC1
:1025800000F8013BB3B18307F8D10A68B2F1013317
:1025900023EA020313F0803F02BF40F8042B51F8F6
:1025A000042FF3E711F8013B00F8013B13B111F8D8
:1025B000013BF9E76046704700F10103810704D051
:1025C00010F8011B89B18107FAD10268B2F101311B
:1025D000914311F0803F04BF50F8042FF6E710F844
:1025E000011B11B110F8011BFBE7C01A7047000076
:1025F000952600085C040000001000200000000088
:102600009721000801000000010000002C280008AC
:10261000430300005C140020B90300000448C061BB
:102620000221017203490162034A426208680047BD
:1026300000140020CC1600202417002010B50548F7
:10264000054CA04204D050F8041B8847A042FAD1A0
:1026500010BD00BFF02500081C2600087047044884
:10266000F3468047034981F308884FF0010058473B
:102670005D2600080010002000B5054A10680028FB
:1026800004D011000220ABBE0020106000BD00008D
:102690004C140020002305E050F8041B41F8043BD3
:1026A000121FFBD150F8042B002AF5D1704700000F
:1026B000FFF7D5FF002801D0FFF7C0FF0020FFF78C
:1026C00095FA00F026F800007047FEE7FEE7FEE707
:1026D000FEE77047704770477047FFF7ADBC0000DA
:1026E000B80B1400E803190064006800E80319003F
:1026F000E8032D0080B5FFF7BFFF024A1100182044
:10270000ABBEFBE72600020007463846FFF7F2FFA4
:10271000FBE780B5FFF7F8BFFFF7D6BFFFF7D5BFE0
:10272000FFF7D4BFFFF7D3BFFFF7D2BFFFF7D1BF8B
:10273000FFF7D0BFFFF7CFBFFFF7CEBFFFF7FEBF5A
:10274000FFF7FEBFFFF7FEBFFFF7FEBFFFF7FEBFBD
:10275000FFF7FEBFFFF7FEBFFFF7FEBFFFF7FEBFAD
:10276000FFF7FEBFFFF7FEBFFFF7FEBFFFF7FEBF9D
:10277000FFF7FEBFFFF7FEBFFFF7FEBFFFF7FEBF8D
:10278000FFF7FEBFFFF7FEBFFFF7FEBFFFF7A5BFD6
:10279000FFF7FEBFFFF7FEBFFFF7FEBFFFF7FEBF6D
:1027A000FFF7FEBFFFF7FEBFFFF7FEBFFFF7FEBF5D
:1027B000FFF7FEBFFFF7FEBFFFF7FEBFFFF7FEBF4D
:1027C000FFF7FEBFFFF7FEBFFFF7FEBFFFF7FEBF3D
:1027D000FFF7FEBFFFF7FEBFFFF7FEBFFFF7FEBF2D
:1027E000FFF7FEBFFFF7FEBFFFF7FEBFFFF7FEBF1D
:1027F000FFF7FEBFFFF7FEBFFFF7FEBFFFF7FEBF0D
:10280000FFF7FEBFFFF7FEBFFFF7FEBFFFF7FEBFFC
:10281000FFF7FEBFFFF7FEBFFFF7FEBFFFF7FEBFEC
:10282000FFF7FEBFFFF7FEBFFFF7FEBF546A03408E
:10283000004E004F005200200046006C0061007303
:1028400000680020003A0020004D00320039005797
:102850000031003200380046002F0030007800368A
:102860000034003000300030003000300030002FE5
:102870000030003200350036002A00360034004BAC
:102880000067E900546A0340004E004F00520020E8
:102890000046006C0061007300680020003A0020D0
:1028A000004D003200390057003100320038004737
:1028B000002F003000780036003400300030003047
:1028C000003000300030002F003100320038002A84
:1028D000003100320038004B0067E900546A0340C1
:1028E000004E004F005200200046006C0061007353
:1028F00000680020003A00200053003200390047F1
:10290000004C003100320038002F003000780036D3
:102910000034003000300030003000300030002F34
:10292000003100320038002A003100320038004BFC
:102930000067E9004E620340005300500049002048
:102940000046006C0061007300680020003A00201F
:10295000004D00320035005000360034002F0030AA
:10296000007800300030003000300030003000309F
:102970000030002F003100320038002A00360034C9
:10298000004B0067EB00646003400049006E007478
:1029900000650072006E0061006C00200046006C53
:1029A00000610073006800200020002F00300078D4
:1029B000003000380030003000300030003000308F
:1029C000002F00300036002A003000300032004B6B
:1029D0000061002C003200350030002A0030003049
:1029E0000032004B0067000C18002004FD0004FCBE
:1029F00016002026FD0004F017002014FD000448F6
:102A00001700201AFD00040416002060FD0004A039
:102A100015002062FD00045C1400206AFD000A0914
:102A2000022D0001010080200904FD001EFE0100AE
:102A3000040904000100FE0100050904000200FE73
:102A400001000609210BFF0000041A01FD0027D92F
:102A500008000811090008C5090008C7090008593D
:102A60000A0008C50A0008A90B0008750B000881B8
:102A70000B00088D0B0008FC000040FD002426031D
:102A8000530054004D006900630072006F00650040
:102A90006C0065006300740072006F006E006900D6
:102AA000630073FD0032D5080008A9090008D508A5
:102AB0000008D5080008D5080008D5080008D50882
:102AC0000008D5080008B70900081A03530054008D
:102AD0004D0033003200310030F30037D5080008D4
:102AE000D5080008D5080008D5080008D508000852
:102AF000D5080008D5080008D5080008D508000842
:102B0000D5080008D5080008D5080008D508000831
:102B1000D5080008F300073000089C1600202DF1AE
:102B200000FCFFF80013010203040102030406077E
:102B300008090204060812010001FD002540830473
:102B400011DF0002010203010000140353005400CE
:102B50004D00330032002000440046005500DC17D1
:0F2B6000002012FD000804030904010100000118
:04000005080026B118
:00000001FF
